:100000000C9436000C945E000C945E000C945E0020
:100010000C945E000C945E000C945E000C945E00E8
:100020000C945E000C945E000C945E000C945E00D8
:100030000C945E000C945E000C945E000C945E00C8
:100040000C94C6040C945E000C94BB030C94ED035A
:100050000C945E000C945E000C945E000C945E00A8
:100060000C94AE000C945E0072021D0411241FBE9D
:10007000CFEFD8E0DEBFCDBF11E0A0E0B1E0E6EA0F
:10008000FBE002C005900D92A238B107D9F722E03B
:10009000A2E8B1E001C01D92A73EB207E1F710E06F
:1000A000CCE6D0E004C02297FE010E94CD05C83600
:1000B000D107C9F70E94B7040C94D1050C94000035
:1000C00026E040E855E260E070E081E492E00E94C2
:1000D000590360E071E081E492E00E94A40462E1CF
:1000E00071E081E492E00E949E0481E492E00E942B
:1000F000A00468E271E081E492E00C94A40468EE4C
:1001000073E080E090E00C943305613298F4209124
:10011000EF01243089F46093A401FC0186EA91E0A8
:10012000DC012A2F281B261718F421912D93F9CFD3
:1001300080E0089581E0089582E0089585ED809340
:10014000BC008091BC0084FDFCCF1092EF010895AB
:1001500085EC8093BC001092EF0108951F920F92DE
:100160000FB60F9211242F933F934F935F936F938A
:100170007F938F939F93AF93BF93EF93FF93809160
:10018000B900887F803609F49EC078F5883209F47A
:100190005DC090F4803109F456C038F4882309F426
:1001A000F5C0883009F44FC0F5C0883109F44EC05D
:1001B000803209F45FC0EEC0803409F46AC058F49C
:1001C000803309F457C0883309F0E4C0809382017A
:1001D0000E94A800DFC0803509F44FC0883509F4BB
:1001E0005DC0883409F0D6C0D3C0883909F4C4C0D2
:1001F000A8F4883709F467C038F4883609F463C076
:10020000803709F460C0C6C0883809F4B5C08039A9
:1002100009F45FC0803809F0BDC05BC0803B09F4C1
:1002200083C038F4803A09F466C0883A09F47CC087
:10023000B1C0803C09F4A4C0883C09F4A1C0883B4B
:1002400009F487C0A7C08091EE0110C09091C7014A
:100250008091C601981770F5E091C70181E08E0F7B
:100260008093C701F0E0E853FE4F80818093BB008C
:1002700085EC83C0809382018BC0E091C70181E04F
:100280008E0F8093C7018091BB00F0E0E853FE4FD2
:1002900080839091C7018091C6016BC0E091C70136
:1002A00081E08E0F8093C7018091BB00F0E0E8539E
:1002B000FE4F80838091ED0181116AC081E08093BF
:1002C000EC0184EA5EC083E08093EF011092830129
:1002D000CFCF80918301803208F04EC0E09183013E
:1002E00081E08E0F809383018091BB00F0E0EC579A
:1002F000FE4F8083BDCF0E94A80080918301803291
:1003000030F4E0918301F0E0EC57FE4F10826091F1
:10031000830170E0E091E801F091E90184E891E067
:1003200009951092830136C084E08093EF0110920A
:10033000A5011092A401E091EA01F091EB01099569
:100340008091A401811105C081E08093A4011092E5
:10035000A601E091A50181E08E0F8093A501F0E058
:10036000EA55FE4F80818093BB009091A50180915A
:10037000A401981708F47CCF85E88093BC000AC0DC
:1003800085EC8093BC001092EF0104C010928201B2
:100390000E949E00FF91EF91BF91AF919F918F912D
:1003A0007F916F915F914F913F912F910F900FBE71
:1003B0000F901F90189580911F0290E020912002CD
:1003C000821B910908952091200280911F02281715
:1003D00050F4E22FF0E0EF5DFD4F808190E02F5F61
:1003E0002093200208958FEF9FEF0895E09120025F
:1003F00080911F02E81730F4F0E0EF5DFD4F80813F
:1004000090E008958FEF9FEF08950895CF92DF92C7
:10041000EF92FF920F931F93CF93DF937C01CB0159
:100420008A012091FC01222389F0EB016B01C40EAB
:10043000D51ECC15DD0569F06991D701ED91FC91D0
:100440000190F081E02DC7010995F3CF642F0E9440
:100450008500C801DF91CF911F910F91FF90EF9020
:10046000DF90CF900895CF93DF931F92CDB7DEB783
:1004700069832091FC012223D1F02091FD012032DB
:1004800040F021E030E0FC013383228380E090E003
:1004900015C08091FE01E82FF0E0E150FE4F9981F8
:1004A00090838F5F8093FE018093FD0105C061E022
:1004B000CE0101960E94850081E090E00F90DF91CF
:1004C000CF910895FC011382128248EE53E060E060
:1004D00070E0448355836683778384E591E091835C
:1004E0008083089580EF91E00C946202FC01818D7D
:1004F000228D90E0805C9F4F821B91098F7399271A
:100500000895FC01918D828D981731F0828DE80F4E
:10051000F11D858D90E008958FEF9FEF0895FC0108
:10052000918D828D981761F0828DDF01A80FB11D2A
:100530005D968C91928D9F5F9F73928F90E008954E
:100540008FEF9FEF089583E194E0892B49F080E0DD
:1005500090E0892B29F00E94130481110C94000073
:100560000895FC01848DDF01A80FB11DA35ABF4F70
:100570002C91848D90E001968F739927848FA689A2
:10058000B7892C93A089B1898C9180648C93938DC9
:10059000848D981306C00288F389E02D80818F7DB9
:1005A00080830895CF93DF93EC01888D8823C9F071
:1005B000EA89FB89808185FD05C0A889B9898C916C
:1005C00086FD0FC00FB607FCF5CF808185FFF2CF07
:1005D000A889B9898C9185FFEDCFCE010E94B10227
:1005E000E7CFDF91CF910895CF92DF92FF920F93E3
:1005F0001F93CF93DF931F92CDB7DEB76C0181E0DD
:10060000D60158968C9358975B969C915B975C9615
:100610008C915C97981307C05096ED91FC9151977F
:10062000808185FD2EC0F601038D10E00F5F1F4F06
:100630000F731127F02EF601848DF81211C00FB63A
:1006400007FCF9CFD6015096ED91FC91519780812E
:1006500085FFF1CFC60169830E94B1026981EBCFAA
:10066000838DE80FF11DE35AFF4F6083D6015B963F
:100670000C935B975296ED91FC9153978081806229
:100680000CC0D6015696ED91FC9157976083509619
:10069000ED91FC91519780818064808381E090E0AE
:1006A0000F90DF91CF911F910F91FF90DF90CF902E
:1006B0000895BF92CF92DF92EF92FF92CF93DF9394
:1006C000EC016A017B01B22EE889F98982E080831E
:1006D000411581EE580761057105A1F060E079E0F0
:1006E0008DE390E0A70196010E94A90521503109F0
:1006F000410951095695479537952795211580E170
:10070000380798F0E889F989108260E874E88EE18A
:1007100090E0A70196010E94A905215031094109E5
:1007200051095695479537952795EC85FD8530837A
:10073000EE85FF852083188EEC89FD89B082EA89D9
:10074000FB89808180618083EA89FB898081886060
:100750008083EA89FB89808180688083EA89FB89BC
:1007600080818F7D8083DF91CF91FF90EF90DF902C
:10077000CF90BF9008951F920F920FB60F92112441
:100780002F938F939F93EF93FF93E0915102F091FA
:1007900052028081E0915702F091580282FD12C00E
:1007A000908180915A028F5F8F7320915B02821734
:1007B00051F0E0915A02F0E0EF5BFD4F958F80938E
:1007C0005A0201C08081FF91EF919F918F912F91EB
:1007D0000F900FBE0F901F9018951F920F920FB69B
:1007E0000F9211242F933F934F935F936F937F93B7
:1007F0008F939F93AF93BF93EF93FF9381E492E026
:100800000E94B102FF91EF91BF91AF919F918F91A3
:100810007F916F915F914F913F912F910F900FBEFC
:100820000F901F90189581E492E00E94760221E0DB
:10083000892B09F420E0822F08951092440210922F
:10084000430288EE93E0A0E0B0E0809345029093ED
:100850004602A0934702B093480284E691E0909349
:1008600042028093410285EC90E090934E02809387
:100870004D0284EC90E09093500280934F0280EC04
:1008800090E0909352028093510281EC90E090931B
:1008900054028093530282EC90E09093560280932E
:1008A000550286EC90E09093580280935702109284
:1008B0005A0210925B0210925C0210925D0208953F
:1008C000CF92DF92EF92FF920F931F93CF93DF931C
:1008D0007C016A01EB0100E010E00C151D0571F0D0
:1008E0006991D701ED91FC910190F081E02DC70154
:1008F0000995892B19F00F5F1F4FEFCFC801DF91CA
:10090000CF911F910F91FF90EF90DF90CF900895BE
:100910006115710581F0DB010D900020E9F7AD0153
:1009200041505109461B570BDC01ED91FC910280AF
:10093000F381E02D099480E090E008950C94880400
:1009400060E771E00C9488040F931F93CF93DF93BB
:10095000EC010E9488048C01CE010E94A004800F4B
:10096000911FDF91CF911F910F91089508950E94DB
:100970006D050E94B6040E946000C3EAD2E00E94A6
:100980007F002097E1F30E94A302F9CF1F920F92FC
:100990000FB60F9211242F933F938F939F93AF9392
:1009A000BF938091DF029091E002A091E102B091AB
:1009B000E2023091DE0223E0230F2D3720F401966E
:1009C000A11DB11D05C026E8230F0296A11DB11D72
:1009D0002093DE028093DF029093E002A093E10275
:1009E000B093E2028091E3029091E402A091E502CB
:1009F000B091E6020196A11DB11D8093E302909390
:100A0000E402A093E502B093E602BF91AF919F91FB
:100A10008F913F912F910F900FBE0F901F901895BF
:100A20003FB7F8948091E3029091E402A091E5022F
:100A3000B091E60226B5A89B05C02F3F19F001969C
:100A4000A11DB11D3FBF6627782F892F9A2F620FF6
:100A5000711D811D911D42E0660F771F881F991F30
:100A60004A95D1F708958F929F92AF92BF92CF92FD
:100A7000DF92EF92FF926B017C010E9410054B0107
:100A80005C01C114D104E104F104F1F00E94A80555
:100A90000E941005681979098A099B09683E73400C
:100AA0008105910570F321E0C21AD108E108F1082F
:100AB00088EE880E83E0981EA11CB11CC114D104DD
:100AC000E104F10429F7DDCFFF90EF90DF90CF90A4
:100AD000BF90AF909F908F900895789484B5826076
:100AE00084BD84B5816084BD85B5826085BD85B5D2
:100AF000816085BDEEE6F0E0808181608083E1E881
:100B0000F0E01082808182608083808181608083B8
:100B1000E0E8F0E0808181608083E1EBF0E08081BB
:100B200084608083E0EBF0E0808181608083EAE78D
:100B3000F0E0808184608083808182608083808116
:100B4000816080838081806880831092C1000895D5
:100B50000895A1E21A2EAA1BBB1BFD010DC0AA1FFE
:100B6000BB1FEE1FFF1FA217B307E407F50720F016
:100B7000A21BB30BE40BF50B661F771F881F991F91
:100B80001A9469F760957095809590959B01AC01DA
:100B9000BD01CF010895EE0FFF1F0590F491E02DE8
:060BA0000994F894FFCF58
:100BA60044485420544553542050524F4752414DC7
:100BB6002000444854204C4942524152592056453F
:100BC6005253494F4E3A200048756D6964697479ED
:100BD6002025200954656D706572617475726520F3
:100BE600284329200954696D65200944617465000C
:100BF6000000000033020602DB01E301F6010502F4
:100C060000000000F402600476028F028102D20224
:100C16000D0A006E616E00696E66006F7666002EC4
:020C26000000CC
:00000001FF
