:1000000021C1000050C100004EC100004CC10000E1
:100010004AC1000048C1000046C1000044C10000C0
:1000200042C1000040C100003EC100003CC10000D0
:100030003AC1000038C1000036C1000034C10000E0
:1000400032C1000030C100002EC100002CC10000F0
:100050002AC1000028C1000026C100000C945413DE
:1000600022C100000C9467100C949D101CC100006C
:100070001AC1000018C1000016C1000014C1000020
:1000800012C1000010C100000EC100000CC1000030
:100090000C9412110C94481106C100009DC7000079
:1000A00002C1000000C10000FEC00000FCC0000052
:1000B000FAC00000F8C00000F6C00000F4C0000064
:1000C000F2C00000F0C00000EEC00000ECC0000074
:1000D000EAC00000E8C00000E6C00000E4C0000084
:1000E000E2C00000AE14B114A014A414AA14E814C1
:1000F000B514B914BF14C314C714CD14D114D51436
:10010000E814DB14DF14E31400000A0B02090C0DE1
:100110000E080703040100000000000000000000BA
:1001200000000000000000000000000000000000CF
:10013000000000001211100000000000000000008C
:1001400000000000000000000000000000000102AC
:1001500010202008081020401020408002010201D9
:100160000804020101020408102040808040201091
:1001700008040201800402018040201008040201EA
:100180000804020101020408102040800102040852
:10019000102040800505050507050808080802022B
:1001A00002020A0A08080404040401010101010111
:1001B00001010303030303030303040707070C0CF4
:1001C0000C0C0C0C0C0C02020202060606060606BB
:1001D00006060B0B0B0B0B0B0B0B00002000230078
:1001E000260029002C002F0032000001000003012E
:1001F0000601090100002200250028002B002E0026
:100200003100340002010000050108010B0100006B
:100210002100240027002A002D00300033000101B6
:100220000000040107010A012906B809BB09C60933
:10023000D109DC09EA09F509000A0A0A130ACF10F4
:100240007A110A1211241FBECFEFD1E2DEBFCDBF5B
:1002500000E00CBF12E0A0E0B2E0EEEFFFE200E051
:100260000BBF02C007900D92A83DB107D9F725E05A
:10027000A8EDB2E001C01D92AA3DB207E1F712E07D
:10028000C4E4D2E000E006C022970109FE010BBFE2
:100290000E94F917C832D10780E00807A9F70E9429
:1002A00048130C94FD17ACCECF93DF9326E040E0CB
:1002B00052EC61E070E081E994E00E94071026E0D2
:1002C00040E052EC61E070E08EE295E00E940710A1
:1002D00078948AEA8093E60286E094E00E94AF096F
:1002E00081E493E00E941C0A60E081E493E00E94B4
:1002F0006B0C8FE293E00E94180D0E949E13609396
:100300006C0370936D0380936E0390936F030E9450
:100310009E13609368037093690380936A039093BC
:100320006B030E949E136093640370936503809334
:100330006603909367030E949E136093600370931B
:100340006103809362039093630361E085E30E94FD
:10035000E91461E085E30E94221561E083E30E94D5
:10036000E91461E083E30E94221561E081E30E94C9
:10037000E91461E081E30E9422151092E8021092D4
:10038000E9021092EA02CBEFD2E085E0888361E0D7
:100390000E94E91460E088810E942215C4EFD2E037
:1003A00086E0888361E00E94E91460E088810E9411
:1003B0002215CDEED2E087E0888361E00E94E91447
:1003C00060E088810E9422151092E5021092E402FA
:1003D00060E085E00E94221560E086E00E94221520
:1003E00060E087E00E94221568EE73E080E090E014
:1003F000DF91CF910C94CD1381E493E00E949F0C88
:10040000ECE4F3E020833183428353836483758378
:1004100086839783832F90E05CE3259F800D911D59
:100420001124909359038093580360E17EE0269F46
:10043000C001279F900D11242CE3329F800D911D48
:100440001124840F911DAA2797FDA095BA2F8093A0
:10045000540390935503A0935603B0935703089504
:100460008F929F92AF92BF92CF92DF92EF92FF92C4
:100470000E949E13C0906803D0906903E0906A03C5
:10048000F0906B036C197D098E099F09C0900C02D6
:10049000D0900D02EE24D7FCE094FE2C6C157D0567
:1004A0008E059F05A8F160E08FE293E00E94B80EF0
:1004B0004B015C0140E060E08FE293E00E945B0E44
:1004C0006B017C0120E030E048EC52E4C501B4014E
:1004D0000E946E170E948C167093DB026093DA0202
:1004E00020E030E048EC52E4C701B6010E946E17EC
:1004F0000E948C167093D9026093D8020E949E13BA
:10050000609368037093690380936A0390936B030D
:10051000FF90EF90DF90CF90BF90AF909F908F9023
:100520000895CF92DF92EF92FF9223E333E343E704
:100530005FE360915C0370915D0380915E03909135
:100540005F030E946E176B017C0186E30E947114A9
:10055000BC01882777FD8095982F0E94BA162DEC54
:100560003CEC4CE45DE30E946E179B01AC01C701BB
:10057000B6010E94BC156B017C0160935C03709313
:100580005D0380935E0390935F0320E030E045EAD3
:1005900053E40E94201687FF13C020E030E446EAAF
:1005A00054E4C701B6010E946E1720E030E844E928
:1005B00053E40E94241620E030E040E451E410C1EE
:1005C00020E030E045EA53E4C701B6010E946A1713
:1005D00087FD1DC020E030E047EE53E4C701B601BF
:1005E0000E94201687FF13C020E030E846E354E461
:1005F000C701B6010E946E1720E030E044E053E4EA
:100600000E94241620E030E847EA53E412C120E0BB
:1006100030E047EE53E4C701B6010E946A1787FD38
:100620001DC020E030E84FEF53E4C701B6010E943F
:10063000201687FF13C020E030E04DEC53E4C701E3
:10064000B6010E946E1720E030E044E452E40E94BC
:10065000241620E030EA4DEC54E4EBC020E030E812
:100660004FEF53E4C701B6010E946A1787FD1DC012
:1006700020E030E04FE054E4C701B6010E942016AC
:1006800087FF13C020E030E042ED53E4C701B6011C
:100690000E946E1720E030E044E752E40E942416E6
:1006A00020E030E04EE554E4C4C020E030E04FE00C
:1006B00054E4C701B6010E946A1787FD1DC020E0FF
:1006C00030E84AE154E4C701B6010E94201687FFD2
:1006D00013C020E030E044E353E4C701B6010E94B8
:1006E0006E1720E030E048E352E40E94241620E038
:1006F00030EC4AE454E474C020E030E84AE154E4C9
:10070000C701B6010E946A1787FD1DC020E030E8CE
:1007100041E354E4C701B6010E94201687FF13C0CD
:1007200020E030E04BE953E4C701B6010E946E17A8
:1007300020E030E048EB52E40E94241620E030E64E
:100740004FE854E44DC020E030E841E354E4C701F1
:10075000B6010E946A1787FD1DC020E030E044E426
:1007600054E4C701B6010E94201687FF13C020E0A1
:1007700030E04AEF53E4C701B6010E946E1720E053
:1007800030E044E952E40E94241620E030E24DE9D2
:1007900054E44FC020E030E044E454E4C701B60123
:1007A0000E946A1787FD1FC020E030E84FE554E43F
:1007B000C701B6010E94201687FF15C020E030E077
:1007C00046E953E4C701B6010E946E1720E030E00D
:1007D0004CED52E40E94241620E030EA4DEE54E441
:1007E0000E94BC1528C020E030E84FE554E4C70162
:1007F000B6010E946A1787FD3CC020E030E848E659
:1008000054E4C701B6010E942016181694F120E0A6
:1008100030E040E254E4C701B6010E946E1720E0C8
:1008200030E040E152E40E94241620E034E844E342
:1008300056E40E94BB156B017C0120E030E040E0F3
:100840005FE30E946E17609370037093710380934F
:100850007203909373030E948C167093DF0260936F
:10086000DE02C701B6010E948C167093DD02609310
:10087000DC02FF90EF90DF90CF900895CF93C0916E
:100880002603C13039F460E085E30E942215C0934D
:10089000E80206C061E085E30E9422151092E8029A
:1008A000CF9108958091580390915903209192031C
:1008B000309193038217930778F020918C03309145
:1008C0008D038217930740F460E085E30E942215B0
:1008D00081E08093E802089520919403309195037C
:1008E0008217930738F020918E0330918F0382177F
:1008F000930750F320919603309197038217930743
:1009000038F0209190033091910382179307E0F221
:1009100061E085E30E9422151092E8020895CF93CA
:10092000C0912703C13039F460E083E30E942215AF
:10093000C093E90206C061E083E30E942215109291
:10094000E902CF9108958091580390915903209125
:100950008603309187038217930778F020918003F4
:10096000309181038217930740F460E083E30E9493
:10097000221581E08093E902089520918803309147
:1009800089038217930738F0209182033091830303
:100990008217930750F320918A0330918B038217BB
:1009A000930738F0209184033091850382179307D1
:1009B000E0F261E083E30E9422151092E9020895BB
:1009C000CF93C0912803C13039F460E081E30E94E5
:1009D0002215C093EA0206C061E081E30E9422155D
:1009E0001092EA02CF910895809158039091590393
:1009F00020917A0330917B038217930778F020913E
:100A00007403309175038217930740F460E081E32B
:100A10000E94221581E08093EA02089520917C03D0
:100A200030917D038217930738F02091760330913F
:100A300077038217930750F320917E0330917F0351
:100A40008217930738F02091780330917903821749
:100A50009307E0F261E081E30E9422151092EA021E
:100A6000089580912903813039F408DF6FE072E046
:100A700081E994E00E94621280912903823039F466
:100A800011DF6FE072E081E994E00E9462128091D0
:100A90002903833061F461E085E30E9422151092FE
:100AA000E8026BE372E081E994E00C94621208952D
:100AB00080912903813009F432DF8091290382304B
:100AC00009F441DF80912903833031F461E083E34D
:100AD0000E9422151092E902089580912903813025
:100AE00009F46EDF80912903823009F47DDF809163
:100AF0002903833031F461E081E30E9422151092D2
:100B0000EA020895CF92DF92EF92FF9275DCC090D7
:100B10005403D0905503E0905603F0905703809112
:100B2000FC029091FD02A091FE02B091FF02B7017C
:100B3000A601481B590B6A0B7B0B8091010390E0C7
:100B4000A0E0B0E0481759076A077B0758F080918A
:100B50000003813039F41092000360E08091FB02C1
:100B60000E9422158091F5029091F602A091F70261
:100B7000B091F802B701A601481B590B6A0B7B0B19
:100B80008091FA0290E0A0E0B0E0481759076A07A8
:100B90007B0758F08091F902813039F41092F90204
:100BA00060E08091F4020E9422158091EE02909103
:100BB000EF02A091F002B091F102C81AD90AEA0A34
:100BC000FB0A8091F30290E0A0E0B0E0C816D906DD
:100BD000EA06FB0678F08091F202813059F4109217
:100BE000F20260E08091ED02FF90EF90DF90CF90F5
:100BF0000C942215FF90EF90DF90CF900895EF9224
:100C0000FF920F931F93CF93DF931F92CDB7DEB761
:100C10007C014983F1DB009154031091550320912D
:100C2000560330915703F7010183128323833483E2
:100C30004981468361E080810E94221581E0F701AD
:100C400085830F90DF91CF911F910F91FF90EF90CF
:100C500008958CE493E017D445E164E181E493E0E6
:100C600020D426E046E161E28FE293E0C0C68EE246
:100C700095E00E94F90E892B79F028E230E042E0FD
:100C800053E06FEF8EE295E00E94121368E472E089
:100C900081E994E00E94621210925B0310925A0361
:100CA00080910203909103039093930380939203A6
:100CB000809114039091150390938D0380938C037E
:100CC0008091080390910903909395038093940376
:100CD00080911A0390911B0390938F0380938E034E
:100CE00080910E0390910F03909397038093960346
:100CF000809120039091210390939103809390031E
:100D00008091040390910503909387038093860359
:100D10008091160390911703909381038093800331
:100D200080910A0390910B03909389038093880329
:100D300080911C0390911D03909383038093820301
:100D4000809110039091110390938B0380938A03F9
:100D500080912203909123039093850380938403D1
:100D6000809106039091070390937B0380937A030D
:100D700080911803909119039093750380937403E5
:100D800080910C0390910D0390937D0380937C03DD
:100D900080911E0390911F039093770380937603B5
:100DA000809112039091130390937F0380937E03AD
:100DB0008091240390912503909379038093780385
:100DC00061E772E081E994E00E9457124AE050E046
:100DD0006091290381E994E00C94D1120F931F9341
:100DE000CF93DF930E949E130091600310916103E3
:100DF0002091620330916303601B710B820B930B94
:100E000000910A0210910B02222717FD2095322F24
:100E10006017710782079307C8F0C8EDD2E06991A7
:100E20008EE295E00E94581282E0CC3ED807B9F7D6
:100E30008EE295E00E94820F0E949E1360936003F1
:100E4000709361038093620390936303DF91CF916A
:100E50001F910F910895CF92DF92EF92FF92CCDA1B
:100E6000FFDA5FDB04DF4EDEFCDD22DE36DEB6DFDE
:100E70008091E702813009F063C0BEDAC09054036C
:100E8000D0905503E0905603F090570380912B03C8
:100E900090912C03A0912D03B0912E03A7019601F0
:100EA000281B390B4A0B5B0BDA01C9018D329140CB
:100EB000A105B10508F444C08091DE029091DF02E3
:100EC0008C3B924050F542E050E060E070E08BEFE8
:100ED00092E095DE68EE73E080E090E00E94CD1332
:100EE00042E050E060E070E084EF92E088DE68EE7F
:100EF00073E080E090E00E94CD1342E050E060E0BB
:100F000070E08DEE92E07BDEC0922B03D0922C033A
:100F1000E0922D03F0922E0313C060E08091FB025B
:100F20000E94221560E08091F4020E94221560E088
:100F30008091ED02FF90EF90DF90CF900C942215FE
:100F4000FF90EF90DF90CF9008951092050481E01C
:100F5000809303041092020461E084E10E94221550
:100F600061E085E10E942215E9EBF0E080818E7F4F
:100F7000808380818D7F808388E48093B80085E4BE
:100F80008093BC000895613298F4209105042430C8
:100F900089F46093BA03FC018CEB93E0DC012A2F07
:100FA000281B261718F421912D93F9CF80E008957E
:100FB00081E0089582E0089585ED8093BC008091E2
:100FC000BC0084FDFCCF10920504089585EC80934D
:100FD000BC001092050408951F920F920FB60F9255
:100FE00011240BB60F922F933F934F935F936F9300
:100FF0007F938F939F93AF93BF93EF93FF938091D2
:10100000B900887F803609F49DC070F5883209F4F4
:101010005CC090F4803109F455C038F4882309F499
:10102000F3C0883009F44EC0F2C0883109F44DC0D5
:10103000803209F45EC0EBC0803409F469C050F41A
:10104000803309F456C0883309F0E1C080939803D7
:10105000BDDFDDC0803509F44FC0883509F45DC0BF
:10106000883409F0D4C0D2C0883909F4C3C0A8F4C8
:10107000883709F467C038F4883609F463C08037CC
:1010800009F460C0C4C0883809F4B4C0803909F4D8
:101090005FC0803809F0BBC05BC0803B09F482C0F0
:1010A00038F4803A09F466C0883A09F47BC0AFC0CE
:1010B000803C09F4A3C0883C09F4A0C0883B09F433
:1010C00086C0A5C08091040410C09091DD0380917A
:1010D000DC03981770F5E091DD0381E08E0F8093BB
:1010E000DD03F0E0E252FC4F80818093BB0085EC91
:1010F00082C0809398038AC0E091DD0381E08E0F67
:101100008093DD038091BB00F0E0E252FC4F8083CE
:101110009091DD038091DC036AC0E091DD0381E002
:101120008E0F8093DD038091BB00F0E0E252FC4F14
:10113000808380910304811169C081E0809302045F
:1011400084EA5DC083E08093050410929903CFCFB9
:1011500080919903803208F04DC0E091990381E0BD
:101160008E0F809399038091BB00F0E0E656FC4F10
:101170008083BDCF2BDF80919903803230F4E091E2
:101180009903F0E0E656FC4F10826091990370E0FD
:10119000E091FE03F091FF038AE993E01995109224
:1011A000990335C084E0809305041092BB0310922C
:1011B000BA03E0910004F091010419958091BA03FB
:1011C000811105C081E08093BA031092BC03E091C5
:1011D000BB0381E08E0F8093BB03F0E0E454FC4F2F
:1011E00080818093BB009091BB038091BA039817D4
:1011F00008F47DCF85E88093BC0009C085EC80931E
:10120000BC001092050403C010929803D5DEFF9134
:10121000EF91BF91AF919F918F917F916F915F916E
:101220004F913F912F910F900BBE0F900FBE0F90DB
:101230001F9018958091350490E020913604821B10
:10124000910908952091360480913504281750F4AF
:10125000E22FF0E0E95CFB4F808190E02F5F20936C
:10126000360408958FEF9FEF0895E0913604809142
:101270003504E81730F4F0E0E95CFB4F808190E042
:1012800008958FEF9FEF08950895CF92DF92EF9228
:10129000FF920F931F93CF93DF937C01CB018A01C1
:1012A00020911204222389F0EB016B01C40ED51E9C
:1012B000CC15DD0561F06991D701ED91FC910190AC
:1012C000F081E02DC7011995F3CF642F5CDEC801D2
:1012D000DF91CF911F910F91FF90EF90DF90CF9012
:1012E0000895CF93DF931F92CDB7DEB76983209126
:1012F00012042223D1F020911304203240F021E087
:1013000030E0FC013383228380E090E014C08091C0
:101310001404E82FF0E0EB5EFB4F998190838F5F20
:10132000809314048093130404C061E0CE010196FD
:101330002ADE81E090E00F90DF91CF910895FC01CB
:101340001382128248EE53E060E070E044835583DC
:101350006683778386EA92E0918380830895109272
:101360003604109235041092140410921304EDCD3B
:1013700086E094E0E4CF0F9300E020E040E060E0FE
:1013800087E594E00E94FE110F9108950F9300E00D
:1013900020E040E060E08DE594E00E94FE110F91B6
:1013A00008950F9300E020E040E060E083E694E0E1
:1013B0000E94FE110F9108950F9300E020E040E09D
:1013C00060E081E794E00E94FE1189E694E00F91CD
:1013D0000C94F4110F9300E020E040E060E087E718
:1013E00094E00E94FE110F9108950F9300E020E019
:1013F00040E060E08DE794E00E94FE110F910895B7
:101400000F9300E020E040E060E083E894E0F6D74E
:101410000F91089510928A041092890410928C04FE
:1014200010928B04089510928E0410928D041092E5
:10143000900410928F040895FC0181818431F1F4AD
:1014400080818531D9F481E0828761E084E10E9466
:10145000221561E085E10E9422158091B9008E7FFE
:101460008093B9008091B9008D7F8093B9008CE0A2
:101470008093B80085E08093BC000895128661E0F7
:1014800080810C94E914FC018AED97E096838583B2
:1014900081E08483838310821182128285E08783B6
:1014A0000895FC016183408308950F931F93CF93A8
:1014B000DF931F92CDB7DEB78C01262F61E0FC01D0
:1014C000818129830E94E91461E0F80181810E94F1
:1014D000221561E0F80180810E94221560E0F80188
:1014E00081810E94221560E0F80180810E9422150E
:1014F000298141E0F801608181810F90DF91CF91D6
:101500001F910F910C947F15CF93DF93EC0161E055
:1015100089810E94E91460E089810E94221561E0BE
:1015200088810E94221561E089810E94221560E075
:101530008981DF91CF910C94E914CF93DF93EC0173
:1015400061E089810E94E91460E088810E9422158F
:1015500061E089810E94221561E088810E94221544
:1015600060E088810E94221560E08981DF91CF913F
:101570000C94E914CF93DF93EC0161E089810E9420
:10158000E91460E088810E94221560E089810E9450
:10159000221561E088810E94221560E088810E9406
:1015A000221560E08981DF91CF910C94E914CF93EB
:1015B000DF93EC0160E089810E94E91461E0888199
:1015C0000E94221589810E9457150197D9F360E086
:1015D0008881DF91CF910C942215FF920F931F9376
:1015E000CF93DF93EC0160E089810E94E91407E06A
:1015F00010E0F12C61E088810E94221589810E940F
:1016000057159927002E01C0880F0A94EAF7F82A87
:1016100081E090E00E94041460E088810E9422151D
:101620000150110938F78F2DDF91CF911F910F9144
:10163000FF9008950F931F93CF93DF931F92CDB721
:10164000DEB78C01262F61E0FC01818129830E9495
:10165000E914298141E0F801608181810F90DF91D7
:10166000CF911F910F910C947F150F931F93CF93E0
:10167000DF93EC018A85882309F44DC084EE8093C2
:10168000BC008091BC0087FFFCCF80ED8093BB0045
:1016900084EC8093BC008091BC0087FFFCCF10924B
:1016A000BB0084EC8093BC008091BC0087FFFCCF22
:1016B00084EE8093BC008091BC0087FFFCCF81ED5D
:1016C0008093BB0084EC8093BC008091BC0087FFBA
:1016D000FCCF80E090E034EC3093BC002091BC0063
:1016E00027FFFCCF2091BB00FE01E80FF91F2283EA
:1016F00001968730910581F784E88093BC00809142
:10170000BC0087FFFCCF84E98093BC00DF91CF91C0
:101710001F910F91089560EDCE01C7DECE0147DF26
:1017200060E0CE0187DFCE0142DF61EDCE01BDDE9C
:10173000CE013DDF00E010E0CE014FDFFE01E00F03
:10174000F11F8283CE010630110511F013DF01C0B5
:10175000F4DE0F5F1F4F0730110571F7CE01DF91E7
:10176000CF911F910F91D0CE1F93CF93DF93EC01B8
:10177000162F8A85882309F43FC084EE8093BC002D
:101780008091BC0087FFFCCF80ED8093BB0084EC90
:101790008093BC008091BC0087FFFCCF1093BB00FE
:1017A00084EC8093BC008091BC0087FFFCCF84EE6A
:1017B0008093BC008091BC0087FFFCCF81ED8093BB
:1017C000BB0084EC8093BC008091BC0087FFFCCF01
:1017D00084EC8093BC008091BC0087FFFCCF10910B
:1017E000BB0084E88093BC008091BC0087FFFCCFE5
:1017F00084E98093BC0016C060EDCE0156DECE01B8
:10180000D6DE612FCE0116DFCE01D1DE61EDCE0135
:101810004CDECE01CCDECE01E0DE182FCE018DDE17
:10182000CE0172DE812FDF91CF911F910895EF924B
:10183000FF921F93CF93DF931F92CDB7DEB77C014A
:10184000162FFC018285882369F184EE8093BC0009
:101850008091BC0087FFFCCF80ED8093BB0084ECBF
:101860008093BC008091BC0087FFFCCF1093BB002D
:1018700084EC8093BC008091BC0087FFFCCF409338
:10188000BB0084EC8093BC008091BC0087FFFCCF40
:1018900084E98093BC000F90DF91CF911F91FF905E
:1018A000EF90089560EDC7014983FFDDC7017FDE3A
:1018B000612FC701BFDEC7017ADE4981642FC701EE
:1018C000B9DEC70174DEC7010F90DF91CF911F9180
:1018D000FF90EF9019CE1F93CF93DF93EC01162F5B
:1018E00060E042DF482F10FB47F960E0CE01DF9156
:1018F000CF911F919CCF962F9695969596959E7019
:10190000292F220F220F290F862F8F70820F089503
:10191000962F9F7067FF09C065FB662760F9892FC6
:101920002CE0629F800D1124089560736695669582
:101930006695862F880F880F860F890F08950F935D
:101940001F93CF93DF93CDB7DEB760970FB6F894B0
:10195000DEBF0FBECDBF8C01CE01099694DDC8015C
:1019600084DEF8016281C801C6DF8B87F8016381DC
:10197000C801C1DF8A87F8016481C801C9DF89878E
:10198000F8018581888B6681C801B5DF8C87F801F5
:101990006781C801B0DF8D87F8018085982F929507
:1019A0009F708F70FAE09F9F800D112490E080530C
:1019B000984F9F878E8788E0FE013996DE01119649
:1019C00001900D928A95E1F729813A814B815C81E2
:1019D0006D817E818F81988560960FB6F894DEBF09
:1019E0000FBECDBFDF91CF911F910F910895DC0104
:1019F00015966C93159716964C93169770E0FB010D
:101A0000E25BFE4FE4911796EC931797FB01EC56BF
:101A1000FE4F649118966C93189740E85EE360E07F
:101A200070E01D964D935D936D937C935097089550
:101A3000CF93DF93EC0162E08D81CBD740E358EF89
:101A40006FEF7FEF49875A876B877C87DF91CF9154
:101A50000895AF92BF92CF92DF92EF92FF920F93D1
:101A60001F93CF93DF93EC01AF80662311F0BA2C64
:101A700001C0B12CA885B0E0AA0FBB1FA652BE4F73
:101A800040E050E0BA01FD0185919491FC01808114
:101A90008A218B1112C08A019B010F5F1F4F2F4FAC
:101AA0003F4FCD84DE84EF84F8884C155D056E05CC
:101AB0007F0538F4B901A801E6CF342F252FCB01DB
:101AC00004C030E020E080E090E0632F722FDF91CF
:101AD000CF911F910F91FF90EF90DF90CF90BF902B
:101AE000AF900895CF92DF92EF92FF920F931F93E2
:101AF000CF93DF93CDB7DEB7C054D1400FB6F89483
:101B0000DEBF0FBECDBF8C01F62E18D6F11016C069
:101B1000F801C184D284E384F4849B01AC012C19C4
:101B20003D094E095F0969017A0130EDC31637E0BE
:101B3000D306E104F10410F48189ADC0F801618796
:101B40007287838794871482138212821182108293
:101B500061E0858177D76AEF70E080E090E01DD684
:101B600061E0F801858135D760E0F80185816AD7A9
:101B700064E170E080E090E010D6F89461E0F80154
:101B8000858160D788E290E03FD662E0F8018581E8
:101B900020D78AE090E038D660E0C8015ADF672B92
:101BA000682B692B39F061E0C80153DF672B682B84
:101BB000692B21F4F801118A78946CC06E01FFEB57
:101BC000CF1AFEEFDF0A9E012F5F3F4F790160E0E1
:101BD000C8013FDFF701608371838283938361E0F3
:101BE000C80137DFF7016483758386839783F8E044
:101BF000EF0EF11CEC14FD0451F778949E012F5F59
:101C00003F4F790120E030E0F7014081518162814E
:101C1000738184819581A681B78141155105610544
:101C20007105B1F10097A105B10591F1F901F595A3
:101C3000E795F595E795F595E795E00FF11FD080CD
:101C4000DD0C481759076A077B0710F0D08203C0E4
:101C50008D2D816080832F5F3F4FF8E0EF0EF11CE8
:101C60002832310589F6F801248130E040818181F4
:101C700090E0840F911D4281840F911D4381840F58
:101C8000911D99272817390719F481E0818B03C02A
:101C9000F801118A80E0C05CDE4F0FB6F894DEBF19
:101CA0000FBECDBFDF91CF911F910F91FF90EF90AD
:101CB000DF90CF900895CF92DF92EF92FF920F9333
:101CC0001F93CF93DF93EC01162F642F0BDF882334
:101CD00009F441C08E818B3031F008F43CC085514D
:101CE000823040F038C06A8170E080E090E00E946D
:101CF000B81623C00A81602F6F7770E080E090E013
:101D00000E94BA1620E030E040E853E40E946E17CB
:101D10006B017C016B8170E080E090E00E94BA165C
:101D20009B01AC01C701B60127D72DEC3CEC4CEC74
:101D30005DE30E946E1707FD9058112381F026E69F
:101D400036E646EE5FE30E946E1720E030E040E0AA
:101D500052E412D704C060E070E080EC9FE7DF91AE
:101D6000CF911F910F91FF90EF90DF90CF9008954A
:101D7000CF92DF92EF92FF92CF93DF93EC0160E07E
:101D8000B1DE882359F18E818B3011F138F1855104
:101D9000823020F5688170E080E090E0E9D720E0B3
:101DA00030E040E853E40E946E176B017C016981CA
:101DB00070E080E090E0DED79B01AC01C701B60186
:101DC000DBD62DEC3CEC4CEC5DE30E946E170AC0B8
:101DD000688170E080E090E0CBD704C060E070E004
:101DE00080EC9FE7DF91CF91FF90EF90DF90CF9055
:101DF0000895FC01818D228D90E0805C9F4F821BB5
:101E000091098F7399270895FC01918D828D981700
:101E100031F0828DE80FF11D858D90E008958FEFF0
:101E20009FEF0895FC01918D828D981761F0828D4E
:101E3000DF01A80FB11D5D968C91928D9F5F9F73FE
:101E4000928F90E008958FEF9FEF089586EC90E1D8
:101E5000892B39F080E090E0892B19F097D181111E
:101E600024C081E791E1892B39F080E090E0892B53
:101E700019F037D281111CC080E090E0892B41F02D
:101E800080E090E0892B21F00E940000811113C0B6
:101E900080E090E0892BA1F080E090E0892B81F038
:101EA0000E94000081110AC008950E940000D9CF4D
:101EB0000E940000E1CF0E940000EACF0C940000D5
:101EC0000895FC01848DDF01A80FB11DA35ABF4FF7
:101ED0002C91848D90E001968F739927848FA68929
:101EE000B7892C93A089B1898C9180648C93938D50
:101EF000848D981306C00288F389E02D80818F7D40
:101F000080830895CF93DF93EC01888D8823C1F0FF
:101F1000EA89FB89808185FD05C0A889B9898C91F2
:101F200086FD0EC00FB607FCF5CF808185FFF2CF8E
:101F3000A889B9898C9185FFEDCFCE01C2DFE8CFAA
:101F4000DF91CF910895CF92DF92FF920F931F936D
:101F5000CF93DF931F92CDB7DEB76C0181E0D6013E
:101F600058968C9358975B969C915B975C968C9156
:101F70005C97981307C05096ED91FC915197808122
:101F800085FD2DC0F601038D10E00F5F1F4F0F730D
:101F90001127F02EF601848DF81210C00FB607FC41
:101FA000F9CFD6015096ED91FC915197808185FF34
:101FB000F1CFC601698385DF6981ECCF838DE80F9E
:101FC000F11DE35AFF4F6083D6015B960C935B973C
:101FD0005296ED91FC915397808180620CC0D6019E
:101FE0005696ED91FC91579760835096ED91FC9138
:101FF000519780818064808381E090E00F90DF9131
:10200000CF911F910F91FF90DF90CF900895BF92D5
:10201000CF92DF92EF92FF92CF93DF93EC016A01B0
:102020007B01B22EE889F98982E08083411581EE37
:1020300058076105710599F060E079E08DE390E063
:10204000A7019601AED72150310941095109569592
:10205000479537952795211580E1380790F0E88955
:10206000F989108260E874E88EE190E0A70196019A
:1020700098D721503109410951095695479537950F
:102080002795EC85FD853083EE85FF852083188EAE
:10209000EC89FD89B082EA89FB8980818061808337
:1020A000EA89FB89808188608083EA89FB89808155
:1020B00080688083EA89FB8980818F7D8083DF91BE
:1020C000CF91FF90EF90DF90CF90BF9008951F9237
:1020D0000F920FB60F9211240BB60F922F938F937E
:1020E0009F93EF93FF93E091A104F091A20480816C
:1020F000E091A704F091A80482FD12C09081809124
:10210000AA048F5F8F732091AB04821751F0E09186
:10211000AA04F0E0EF56FB4F958F8093AA0401C00C
:102120008081FF91EF919F918F912F910F900BBE26
:102130000F900FBE0F901F9018951F920F920FB621
:102140000F9211240BB60F922F933F934F935F93EF
:102150006F937F938F939F93AF93BF93EF93FF936F
:1021600081E994E0AEDEFF91EF91BF91AF919F9135
:102170008F917F916F915F914F913F912F910F9030
:102180000BBE0F900FBE0F901F90189581E994E041
:1021900030DE21E0892B09F420E0822F089510928F
:1021A00094041092930488EE93E0A0E0B0E0809352
:1021B000950490939604A0939704B093980486EBAB
:1021C00092E0909392048093910485EC90E0909338
:1021D0009E0480939D0484EC90E09093A0048093EF
:1021E0009F0480EC90E09093A2048093A10481EC82
:1021F00090E09093A4048093A30482EC90E09093E9
:10220000A6048093A50486EC90E09093A8048093A4
:10221000A7041092AA041092AB041092AC0410927E
:10222000AD0408951F920F920FB60F9211240BB6B2
:102230000F922F938F939F93EF93FF93E0913E051F
:10224000F0913F058081E0914405F091450582FDC4
:1022500012C09081809147058F5F8F732091480550
:10226000821751F0E0914705F0E0E25DFA4F958F5B
:102270008093470501C08081FF91EF919F918F91DD
:102280002F910F900BBE0F900FBE0F901F901895BF
:102290001F920F920FB60F9211240BB60F922F932D
:1022A0003F934F935F936F937F938F939F93AF93DE
:1022B000BF93EF93FF938EE295E003DEFF91EF91E2
:1022C000BF91AF919F918F917F916F915F914F914E
:1022D0003F912F910F900BBE0F900FBE0F901F904C
:1022E00018958EE295E085DD21E0892B09F420E048
:1022F000822F0895109231051092300588EE93E0F8
:10230000A0E0B0E08093320590933305A0933405AC
:10231000B093350586EB92E090932F0580932E05C0
:102320008DEC90E090933B0580933A058CEC90E027
:1023300090933D0580933C0588EC90E090933F0599
:1023400080933E0589EC90E0909341058093400591
:102350008AEC90E090934305809342058EEC90E0E8
:1023600090934505809344051092470510924805C7
:102370001092490510924A050895AF92BF92CF92EC
:10238000DF92EF92FF920F931F93CF93DF936C0135
:102390007B01C0E0D0E000E010E0F601EC0FFD1F93
:1023A0004AE050E06281C701F6D05C016EE2C701ED
:1023B0007FD08A0D9B1D080F191F2196C330D105B0
:1023C00061F74AE050E0F6016581C701E4D0800F73
:1023D000911FDF91CF911F910F91FF90EF90DF90B0
:1023E000CF90BF90AF90089526EC32E0FC0131838E
:1023F0002083128213821482158208950F93FC01A8
:1024000086EC92E0918380836283438324830583F7
:102410000F91089586EC92E09093CC058093CB05C4
:102420001092CD051092CE051092CF051092D005D6
:102430000895CF92DF92EF92FF920F931F93CF9365
:10244000DF937C016A01EB0100E010E00C151D0533
:1024500071F06991D701ED91FC910190F081E02D2F
:10246000C7011995892B19F00F5F1F4FEFCFC801D6
:10247000DF91CF911F910F91FF90EF90DF90CF9060
:1024800008956115710581F0DB010D900020E9F7D9
:10249000AD0141505109461B570BDC01ED91FC91F8
:1024A0000280F381E02D199480E090E00895E9CF57
:1024B000DC01ED91FC910190F081E02D199468EC24
:1024C00072E0DFCF0F931F93CF93DF93EC01D9DF3F
:1024D0008C01CE01F4DF800F911FDF91CF911F910E
:1024E0000F9108958F929F92AF92BF92DF92EF92D9
:1024F000FF920F931F93CF93DF93CDB7DEB7A197D2
:102500000FB6F894DEBF0FBECDBF7C01F42FD52EE1
:10251000CB0119A2223008F42AE08E010F5D1F4F73
:10252000822E912CA12CB12C6F2F7D2DA501940111
:1025300038D5F22FD32ECA01015011096A3014F494
:10254000E0E301C0E7E3E60FD801EC93232B242B53
:10255000252B51F7B801C70194DFA1960FB6F89467
:10256000DEBF0FBECDBFDF91CF911F910F91FF90C6
:10257000EF90DF90BF90AF909F908F9008952115BE
:10258000310541F4DC01ED91FC910190F081E02DE9
:10259000642F1994A7CF9A01462F50E060E070E0B5
:1025A000EECF0F931F93CF93DF93EC019A01462F49
:1025B00050E060E070E0E3DF8C01CE0180DF800F4F
:1025C000911FDF91CF911F910F9108950F931F934A
:1025D000CF93DF93EC01B2D0688779878A879B8796
:1025E000E881F9810680F781E02DCE01199597FFEA
:1025F00014C0A4D0088519852A853B85601B710B02
:10260000820B930B0C811D812E813F816017710716
:102610008207930728F38FEF9FEFDF91CF911F91F0
:102620000F910895AF92BF92CF92DF92EF92FF92F7
:102630000F931F93CF93DF936C017901211531051F
:10264000B1F08A01C0E0D0E0A62EBB24A7FCB09474
:10265000C601BCDF97FD0EC08A159B0559F0F80135
:1026600081938F012196CE15DF0591F703C080E09D
:1026700090E001C0CE01DF91CF911F910F91FF90AB
:10268000EF90DF90CF90BF90AF9008950895089598
:10269000C6D0FDDF0E945401C6E2DFE00E942B0796
:1026A0002097E1F3D3DBFACF1F920F920FB60F9270
:1026B00011242F933F938F939F93AF93BF93809158
:1026C000D2059091D305A091D405B091D505309154
:1026D000D10523E0230F2D3720F40196A11DB11D54
:1026E00005C026E8230F0296A11DB11D2093D10538
:1026F0008093D2059093D305A093D405B093D505CC
:102700008091D6059091D705A091D805B091D905B3
:102710000196A11DB11D8093D6059093D705A09376
:10272000D805B093D905BF91AF919F918F913F91FB
:102730002F910F900FBE0F901F9018952FB7F89400
:102740006091D2057091D3058091D4059091D50503
:102750002FBF08953FB7F8948091D6059091D70583
:10276000A091D805B091D90526B5A89B05C02F3FEB
:1027700019F00196A11DB11D3FBF6627782F892F43
:102780009A2F620F711D811D911D42E0660F771F08
:10279000881F991F4A95D1F708958F929F92AF9203
:1027A000BF92CF92DF92EF92FF926B017C01D2DF5A
:1027B0004B015C01C114D104E104F104E1F066DFD6
:1027C000C9DF681979098A099B09683E7340810548
:1027D000910580F321E0C21AD108E108F10888EEE2
:1027E000880E83E0981EA11CB11CC114D104E10421
:1027F000F10431F7DFCFFF90EF90DF90CF90BF90E3
:10280000AF909F908F9008958230910538F0880F97
:10281000991F880F991F05970197F1F708957894EC
:1028200084B5826084BD84B5816084BD85B58260D5
:1028300085BD85B5816085BDEEE6F0E08081816073
:102840008083E1E8F0E01082808182608083808173
:1028500081608083E0E8F0E0808181608083E1EB4B
:10286000F0E0808184608083E0EBF0E08081816033
:102870008083E1E9F0E080818260808380818160F3
:102880008083E0E9F0E0808181608083E1EAF0E02C
:10289000808182608083808181608083E0EAF0E0D3
:1028A000808181608083E1E2F1E0808182608083C9
:1028B000808181608083E0E2F1E0808181608083BB
:1028C000EAE7F0E080818460808380818260808399
:1028D0008081816080838081806880831092C100C4
:1028E0000895863308F0865320917B00982F9870C6
:1028F000277F922B90937B00877020910E0290E4AB
:10290000299F90011124822B80937C0080917A0072
:10291000806480937A0080917A0086FDFCCF80915C
:1029200078002091790090E0922B089590E0FC01CE
:102930003197E231F10508F04BC0EE58FF4F53C319
:10294000809180008F7703C0809180008F7D80937D
:102950008000089580918000877FF9CF84B58F77BC
:1029600002C084B58F7D84BD08958091B0008F77BB
:1029700003C08091B0008F7D8093B0000895809156
:1029800090008F7707C0809190008F7D03C0809169
:102990009000877F8093900008958091A0008F77AA
:1029A00007C08091A0008F7D03C08091A000877F29
:1029B0008093A0000895809120018F7707C08091B7
:1029C00020018F7D03C080912001877F80932001AB
:1029D0000895CF93DF9390E0FC01E25BFE4F2491DA
:1029E000FC01EC56FE4F8491882349F190E0880F5A
:1029F000991FFC01E25FFD4FA591B4918C509E4F51
:102A0000FC01C591D4919FB7611108C0F8948C91D5
:102A1000209582238C93888182230AC0623051F4EE
:102A2000F8948C91322F309583238C938881822B5C
:102A3000888304C0F8948C91822B8C939FBFDF9184
:102A4000CF9108950F931F93CF93DF931F92CDB72C
:102A5000DEB7282F30E0F901E85FFE4F8491F901DD
:102A6000E25BFE4F1491F901EC56FE4F04910023F6
:102A7000C1F0882319F0698359DF6981E02FF0E004
:102A8000EE0FFF1FEC50FE4FA591B4919FB7F89445
:102A90008C91611103C01095812301C0812B8C930F
:102AA0009FBF0F90DF91CF911F910F910895CF930A
:102AB000DF93282F30E0F901E85FFE4F8491F901A0
:102AC000E25BFE4FD491F901EC56FE4FC491CC234A
:102AD00089F081112BDFEC2FF0E0EE0FFF1FE652A3
:102AE000FE4FA591B4912C912D2381E090E021F42B
:102AF00080E002C080E090E0DF91CF910895BF9226
:102B0000CF92DF92EF92FF920F931F93CF93DF93B9
:102B1000C82ED62EB42EC7E0D0E0022F10E087E0FA
:102B2000E82EF12CB1100AC0F701EC1BFD0BB80127
:102B300002C075956795EA95E2F707C0B8010C2EBB
:102B400002C0759567950A94E2F7617077278C2D1E
:102B500079DF61E08D2D76DF60E08D2D73DF2197C9
:102B600008F7DF91CF911F910F91FF90EF90DF90C9
:102B7000CF90BF9008955058BB27AA270ED070C1A0
:102B800061D130F066D120F031F49F3F11F41EF492
:102B900056C10EF4E095E7FB4CC1E92F72D180F3EA
:102BA000BA17620773078407950718F071F49EF54A
:102BB0008AC10EF4E0950B2EBA2FA02D0B01B9019E
:102BC00090010C01CA01A0011124FF27591B99F0A3
:102BD000593F50F4503E68F11A16F040A22F232FAF
:102BE000342F4427585FF3CF469537952795A795FF
:102BF000F0405395C9F77EF41F16BA0B620B730BA6
:102C0000840BBAF09150A1F0FF0FBB1F661F771F16
:102C1000881FC2F70EC0BA0F621F731F841F48F4CB
:102C2000879577956795B795F7959E3F08F0B3CF51
:102C30009395880F08F09927EE0F9795879508953B
:102C4000D4D008F481E008950CD00AC102D140F03C
:102C5000F9D030F021F45F3F19F0EBC0511134C1CD
:102C6000EEC00FD198F39923C9F35523B1F3951B07
:102C7000550BBB27AA2762177307840738F09F5F9D
:102C80005F4F220F331F441FAA1FA9F333D00E2E0C
:102C90003AF0E0E830D091505040E695001CCAF779
:102CA00029D0FE2F27D0660F771F881FBB1F26173E
:102CB00037074807AB07B0E809F0BB0B802DBF0111
:102CC000FF2793585F4F2AF09E3F510568F0B1C02F
:102CD000FBC05F3FECF3983EDCF3869577956795F4
:102CE000B795F7959F5FC9F7880F911D96958795C2
:102CF00097F90895E1E0660F771F881FBB1F6217E1
:102D000073078407BA0720F0621B730B840BBA0B9E
:102D1000EE1F88F7E0950895BCD088F09F5790F09B
:102D2000B92F9927B751A0F0D1F0660F771F881FF0
:102D3000991F1AF0BA95C9F712C0B13081F0C3D00B
:102D4000B1E00895C0C0672F782F8827B85F39F0A9
:102D5000B93FCCF3869577956795B395D9F73EF44F
:102D600090958095709561957F4F8F4F9F4F0895F7
:102D7000E89409C097FB3EF4909580957095619515
:102D80007F4F8F4F9F4F9923A9F0F92F96E9BB27CB
:102D90009395F695879577956795B795F111F8CF47
:102DA000FAF4BB0F11F460FF1BC06F5F7F4F8F4FB2
:102DB0009F4F16C0882311F096E911C0772321F0A8
:102DC0009EE8872F762F05C0662371F096E8862F40
:102DD00070E060E02AF09A95660F771F881FDAF797
:102DE000880F9695879597F90895990F0008550FC4
:102DF000AA0BE0E8FEEF16161706E807F907C0F081
:102E000012161306E407F50798F0621B730B840B88
:102E1000950B39F40A2661F0232B242B252B21F462
:102E200008950A2609F4A140A6958FEF811D811D02
:102E3000089597F99F6780E870E060E008959FEF3C
:102E400080EC089500240A94161617061806090641
:102E5000089500240A941216130614060506089510
:102E6000092E0394000C11F4882352F0BB0F40F498
:102E7000BF2B11F460FF04C06F5F7F4F8F4F9F4FD8
:102E8000089557FD9058440F551F59F05F3F71F05A
:102E90004795880F97FB991F61F09F3F79F08795C1
:102EA0000895121613061406551FF2CF4695F1DF4A
:102EB00008C0161617061806991FF1CF86957105DA
:102EC000610508940895E894BB2766277727CB010E
:102ED00097F908958ADF08F48FEF08950BD0C0CFDB
:102EE000B1DF28F0B6DF18F0952309F0A2CFA7CF05
:102EF0001124EACFC6DFA0F3959FD1F3950F50E0E0
:102F0000551F629FF001729FBB27F00DB11D639F9B
:102F1000AA27F00DB11DAA1F649F6627B00DA11D41
:102F2000661F829F2227B00DA11D621F739FB00DE7
:102F3000A11D621F839FA00D611D221F749F332757
:102F4000A00D611D231F849F600D211D822F762FF0
:102F50006A2F11249F5750408AF0E1F088234AF0ED
:102F6000EE0FFF1FBB1F661F771F881F9150504039
:102F7000A9F79E3F510570F05CCFA6CF5F3FECF301
:102F8000983EDCF3869577956795B795F795E79525
:102F90009F5FC1F7FE2B880F911D9695879597F936
:102FA0000895A1E21A2EAA1BBB1BFD010DC0AA1F8A
:102FB000BB1FEE1FFF1FA217B307E407F50720F0A2
:102FC000A21BB30BE40BF50B661F771F881F991F1D
:102FD0001A9469F760957095809590959B01AC0166
:102FE000BD01CF010895EE0FFF1F0590F491E02D74
:0E2FF00019940790F691E02D1994F894FFCFF4
:102FFE000000DA05800001000000D007F401014D49
:10300E00616E75616C20636F6E74726F6C2E2E2EF6
:10301E002E2E2E2E2E2E2E2E2E2E2E2E2E2E2E2EC2
:10302E002E2E2E2E2E2E2E2E2E2E00436F6E7472C0
:10303E006F6C20424F5448002055736172742052B9
:10304E00656365697665642E2E2E2E2E2E2E2E2EFF
:10305E002E2E2E2E2E2E2E2E2E2E2E2E2E2E2E2E82
:10306E0000436F6E74726F6C204D6F64653A2E2E36
:10307E002E2E2E2E007465726D696E61746F722025
:10308E00636861723A2E2E2E2E2E2E2E2E2E2E2E60
:10309E002E0000000000710945091A0922093509A0
:1030AE00440900000000A30F1912F90E120F040FAD
:1030BE00820F00000000BD110D0A006E616E0069E6
:0830CE006E66006F76660000DB
:00000001FF
