:100000004FC100007CC100007AC1000078C100002F
:1000100076C1000074C1000072C1000070C1000010
:100020006EC100006CC100006AC1000068C1000020
:1000300066C1000064C1000062C1000060C1000030
:100040005EC100005CC100005AC1000058C1000040
:1000500056C1000054C1000052C1000020C500007C
:100060004EC1000035C3000069C3000048C1000054
:1000700046C1000044C1000042C1000040C1000070
:100080003EC100003CC100003AC1000038C1000080
:1000900036C1000034C1000032C1000030C1000090
:1000A0002EC100002CC100002AC1000028C10000A0
:1000B00026C1000024C1000022C1000020C10000B0
:1000C0001EC100001CC100001AC1000018C10000C0
:1000D00016C1000014C1000012C1000010C10000D0
:1000E0000EC100000102102020080810204010203E
:1000F00040800201020108040201010204081020EC
:1001000040808040201008040201800402018040E9
:100110002010080402010804020101020408102052
:1001200040800102040810204080050505050705F0
:1001300008080808020202020A0A08080404040463
:10014000010101010101010103030303030303038F
:10015000040707070C0C0C0C0C0C0C0C020202021E
:1001600006060606060606060B0B0B0B0B0B0B0B07
:1001700000002200250028002B002E003100340052
:1001800002010000050108010B010000210024000C
:1001900027002A002D003000330001010000040177
:1001A00007010A0100407A10F35A00A0724E1809A4
:1001B0000010A5D4E80000E87648170000E40B54CE
:1001C000020000CA9A3B000000E1F505000080969D
:1001D0009800000040420F000000A08601000000CF
:1001E000102700000000E803000000006400000089
:1001F00000000A00000000000100000000002C7652
:10020000D888DC674F0823DFC1DFAE59E1B1B7966C
:10021000E5E3E453C63AE651997696E8E6C28426C9
:10022000EB898C9B62ED407C6FFCEFBC9C9F40F2A5
:10023000BAA56FA5F490055A2AF75C936B6CF96721
:100240006DC11BFCE0E40D47FEF520E6B500D0EDE6
:10025000902E0300943577050080841E080000204E
:100260004E0A000000C80C333333330F986E1283EC
:100270001141EF8D2114893BE65516CFFEE6DB18C0
:10028000D1844B381BF77C1D901DA4BBE424203285
:1002900084725E228100C9F124ECA1E53D27D003E0
:1002A00011241FBECFEFD1E2DEBFCDBF00E00CBFF7
:1002B00012E0A0E0B2E0E4E8F9E100E00BBF02C028
:1002C00007900D92AE31B107D9F722E0AEE1B2E06E
:1002D00001C01D92AC3CB207E1F712E0C0EAD2E0E7
:1002E00000E005C022970109FE010BBFB5D6CE394B
:1002F000D10780E00807B1F7C8D30C94C00C80CEBA
:1003000026E040E052EC61E070E082E292E080D1D1
:1003100061E080910602EEC4CF92DF92EF92FF92ED
:10032000CF93DF93CDB7DEB72C970FB6F894DEBF2F
:100330000FBECDBF20E030E040E05FE360911E02E1
:1003400070911F02809120029091210200D66B01D2
:100350007C0180910802A9D4BC01882777FD809593
:10036000982F69D520E030E040E05FE3F0D59B01B5
:10037000AC01C701B601F9D4AB01BC0140931E0228
:1003800050931F02609320027093210222E0CE015D
:10039000079611D36BE072E0CE010196E1D2BE0167
:1003A000695F7F4FCE0101965ED3BC0182E292E08D
:1003B00062D2CE0101966DD2CE0107966AD282E258
:1003C00092E0A1D064E670E080E090E0D5D364E6EE
:1003D00070E080E090E0D0D32C960FB6F894DEBFAA
:1003E0000FBECDBFDF91CF91FF90EF90DF90CF9008
:1003F0000895FC01818D228D90E0805C9F4F821BCF
:1004000091098F7399270895FC01918D828D98171A
:1004100031F0828DE80FF11D858D90E008958FEF0A
:100420009FEF0895FC01918D828D981761F0828D68
:10043000DF01A80FB11D5D968C91928D9F5F9F7318
:10044000928F90E008958FEF9FEF089587EC93E0EF
:10045000892B39F080E090E0892B19F098D1811137
:1004600025C080E090E0892B41F080E090E0892B6E
:1004700021F00E94000081111CC080E090E0892BD7
:1004800041F080E090E0892B21F00E940000811172
:1004900013C080E090E0892BA1F080E090E0892BF0
:1004A00081F00E94000081110AC008950E9400009E
:1004B000D8CF0E940000E1CF0E940000EACF0C9448
:1004C00000000895FC01848DDF01A80FB11DA35A1F
:1004D000BF4F2C91848D90E001968F739927848F64
:1004E000A689B7892C93A089B1898C9180648C935B
:1004F000938D848D981306C00288F389E02D808146
:100500008F7D80830895CF93DF93EC01888D8823BE
:10051000C1F0EA89FB89808185FD05C0A889B98978
:100520008C9186FD0EC00FB607FCF5CF808185FF4C
:10053000F2CFA889B9898C9185FFEDCFCE01C2DFBA
:10054000E8CFDF91CF910895CF92DF92FF920F9382
:100550001F93CF93DF931F92CDB7DEB76C0181E07D
:10056000D60158968C9358975B969C915B975C96B6
:100570008C915C97981307C05096ED91FC91519720
:10058000808185FD2DC0F601038D10E00F5F1F4FA8
:100590000F731127F02EF601848DF81210C00FB6DC
:1005A00007FCF9CFD6015096ED91FC9151978081CF
:1005B00085FFF1CFC601698385DF6981ECCF838D2B
:1005C000E80FF11DE35AFF4F6083D6015B960C9351
:1005D0005B975296ED91FC915397808180620CC09D
:1005E000D6015696ED91FC91579760835096ED9108
:1005F000FC91519780818064808381E090E00F902E
:10060000DF91CF911F910F91FF90DF90CF900895D0
:10061000BF92CF92DF92EF92FF92CF93DF93EC01E4
:100620006A017B01B22EE889F98982E08083411555
:1006300081EE58076105710599F060E079E08DE37E
:1006400090E0A7019601E6D42150310941095109F2
:100650005695479537952795211580E1380790F0F5
:10066000E889F989108260E874E88EE190E0A701DA
:100670009601D0D421503109410951095695479529
:1006800037952795EC85FD853083EE85FF852083A2
:10069000188EEC89FD89B082EA89FB8980818061AE
:1006A0008083EA89FB89808188608083EA89FB896D
:1006B000808180688083EA89FB8980818F7D808347
:1006C000DF91CF91FF90EF90DF90CF90BF90089592
:1006D0001F920F920FB60F9211240BB60F922F9309
:1006E0008F939F93EF93FF93E0913202F091330247
:1006F0008081E0913802F091390282FD12C0908130
:1007000080913B028F5F8F7320913C02821751F0E2
:10071000E0913B02F0E0EE5DFD4F958F80933B0250
:1007200001C08081FF91EF919F918F912F910F9048
:100730000BBE0F900FBE0F901F9018951F920F9237
:100740000FB60F9211240BB60F922F933F934F9336
:100750005F936F937F938F939F93AF93BF93EF9329
:10076000FF9382E292E0AEDEFF91EF91BF91AF91F5
:100770009F918F917F916F915F914F913F912F91B9
:100780000F900BBE0F900FBE0F901F90189582E236
:1007900092E02FDE21E0892B09F420E0822F0895DA
:1007A000109225021092240288EE93E0A0E0B0E0BF
:1007B0008093260290932702A0932802B0932902E7
:1007C00081E192E0909323028093220285EC90E0F5
:1007D00090932F0280932E0284EC90E0909331024C
:1007E0008093300280EC90E0909333028093320249
:1007F00081EC90E0909335028093340282EC90E09B
:10080000909337028093360286EC90E09093390201
:100810008093380210923B0210923C0210923D02EB
:1008200010923E020895CF92DF92EF92FF920F93C3
:100830001F93CF93DF937C016A01EB0100E010E08E
:100840000C151D0571F06991D701ED91FC91019096
:10085000F081E02DC7011995892B19F00F5F1F4F0B
:10086000EFCFC801DF91CF911F910F91FF90EF90D3
:10087000DF90CF900895DC01ED91FC91DB0114969F
:100880004D915C9115976D917C910280F381E02DE3
:100890001994FC01808191819BC4CF93DF93EC017B
:1008A00088819981009709F093D4198218821D825A
:1008B0001C821B821A82DF91CF9108950F931F93A0
:1008C000CF93DF93EC018B016F5F7F4F888199811C
:1008D0000ED5009731F0998388831B830A8381E0CA
:1008E00001C080E0DF91CF911F910F910895CF93C8
:1008F000DF93EC0188819981892B29F08A819B8182
:100900008617970758F4CE01D9DF882341F08C81F0
:100910009D81892B19F4E881F981108281E0DF91B2
:10092000CF910895EF92FF920F931F93CF93DF9390
:10093000EC017B018A01BA01DADF811103C0CE012B
:10094000ACDF06C01D830C83B70188819981BCD5BB
:10095000CE01DF91CF911F910F91FF90EF900895FD
:10096000FC01118210821382128215821482611599
:10097000710551F0FB0101900020E9F7AF014150F2
:100980005109461B570BCECF0895CF93DF93EC014F
:100990006115710559F0FB0101900020E9F7AF01E5
:1009A00041505109461B570BBDDF01C076DFCE0118
:1009B000DF91CF910895EF92FF920F931F93CF9302
:1009C000DF93CDB7DEB7A1970FB6F894DEBF0FBEA9
:1009D000CDBF7C01CB01BA01F701118210821382D5
:1009E00012821582148242E0420F8E010F5F1F4F68
:1009F00037D3BC01C701C9DFA1960FB6F894DEBF9B
:100A00000FBECDBFDF91CF911F910F91FF90EF905F
:100A10000895EF92FF920F931F93CF93DF93EC0112
:100A20007B010C811D816115710511F480E014C0FA
:100A30004115510581F0040F151FB80158DF8823B7
:100A4000A9F3288139818C819D81B701820F931F81
:100A50003BD51D830C8381E0DF91CF911F910F91D6
:100A6000FF90EF900895CF93DF93EC01FB01448159
:100A7000558160817181CDDF811102C0CE010DDF12
:100A8000CE01DF91CF9108950895ADD0FDDF38DC20
:100A9000C6E2D2E041DC2097E9F3D8DCFBCF1F921D
:100AA0000F920FB60F9211242F933F938F939F9322
:100AB000AF93BF938091C0029091C102A091C202F6
:100AC000B091C3023091BF0223E0230F2D3720F4F1
:100AD0000196A11DB11D05C026E8230F0296A11D98
:100AE000B11D2093BF028093C0029093C102A093D6
:100AF000C202B093C3028091C4029091C502A0913A
:100B0000C602B091C7020196A11DB11D8093C40217
:100B10009093C502A093C602B093C702BF91AF9154
:100B20009F918F913F912F910F900FBE0F901F902B
:100B300018953FB7F8948091C4029091C502A09196
:100B4000C602B091C70226B5A89B05C02F3F19F079
:100B50000196A11DB11D3FBF6627782F892F9A2FBF
:100B6000620F711D811D911D42E0660F771F881F66
:100B7000991F4A95D1F708958F929F92AF92BF9295
:100B8000CF92DF92EF92FF926B017C01D2DF4B019B
:100B90005C01C114D104E104F104E1F0E4D0C9DF47
:100BA000681979098A099B09683E73408105910596
:100BB00080F321E0C21AD108E108F10888EE880E1E
:100BC00083E0981EA11CB11CC114D104E104F104FE
:100BD00031F7DFCFFF90EF90DF90CF90BF90AF90D5
:100BE0009F908F900895789484B5826084BD84B579
:100BF000816084BD85B5826085BD85B5816085BD18
:100C0000EEE6F0E0808181608083E1E8F0E0108230
:100C1000808182608083808181608083E0E8F0E071
:100C2000808181608083E1EBF0E08081846080835B
:100C3000E0EBF0E0808181608083E1E9F0E0808199
:100C400082608083808181608083E0E9F0E0808140
:100C500081608083E1EAF0E080818260808380812E
:100C600081608083E0EAF0E0808181608083E1E25E
:100C7000F1E0808182608083808181608083E0E216
:100C8000F1E0808181608083EAE7F0E08081846028
:100C90008083808182608083808181608083808185
:100CA000806880831092C1000895863308F08653CF
:100CB00020917B00982F9870277F922B90937B0038
:100CC000877020910A0290E4299F90011124822BC1
:100CD00080937C0080917A00806480937A00809178
:100CE0007A0086FDFCCF809178002091790090E019
:100CF000922B0895CF93DF9390E0FC01EC51FF4FCE
:100D00002491FC01E65DFE4F8491882349F190E037
:100D1000880F991FFC01E657FE4FA591B4918059A9
:100D20009E4FFC01C591D4919FB7611108C0F89402
:100D30008C91209582238C93888182230AC0623013
:100D400051F4F8948C91322F309583238C938881C1
:100D5000822B888304C0F8948C91822B8C939FBF44
:100D6000DF91CF91089508955058BB27AA270ED040
:100D7000B4C0A5D030F0AAD020F031F49F3F11F4D8
:100D80001EF49AC00EF4E095E7FB90C0E92FB6D0B0
:100D900080F3BA17620773078407950718F071F498
:100DA0009EF5CEC00EF4E0950B2EBA2FA02D0B01B0
:100DB000B90190010C01CA01A0011124FF27591BA0
:100DC00099F0593F50F4503E68F11A16F040A22FA6
:100DD000232F342F4427585FF3CF46953795279517
:100DE000A795F0405395C9F77EF41F16BA0B620B16
:100DF000730B840BBAF09150A1F0FF0FBB1F661F5D
:100E0000771F881FC2F70EC0BA0F621F731F841F9F
:100E100048F4879577956795B795F7959E3F08F0C5
:100E2000B3CF9395880F08F09927EE0F9795879584
:100E30000895E89409C097FB3EF4909580957095CD
:100E400061957F4F8F4F9F4F9923A9F0F92F96E916
:100E5000BB279395F695879577956795B795F1118B
:100E6000F8CFFAF4BB0F11F460FF1BC06F5F7F4F28
:100E70008F4F9F4F16C0882311F096E911C077233A
:100E800021F09EE8872F762F05C0662371F096E843
:100E9000862F70E060E02AF09A95660F771F881F12
:100EA000DAF7880F9695879597F9089597F99F67D0
:100EB00080E870E060E008959FEF80EC08950024E2
:100EC0000A941616170618060906089500240A94AF
:100ED00012161306140605060895092E0394000C35
:100EE00011F4882352F0BB0F40F4BF2B11F460FFC4
:100EF00004C06F5F7F4F8F4F9F4F089557FD9058ED
:100F0000440F551F59F05F3F71F04795880F97FBCD
:100F1000991F61F09F3F79F0879508951216130687
:100F20001406551FF2CF4695F1DF08C016161706B6
:100F30001806991FF1CF86957105610508940895EB
:100F4000E894BB2766277727CB0197F908950BD044
:100F5000C4CFB5DF28F0BADF18F0952309F0A6CF8B
:100F6000ABCF1124EECFCADFA0F3959FD1F3950F3D
:100F700050E0551F629FF001729FBB27F00DB11D1D
:100F8000639FAA27F00DB11DAA1F649F6627B00DAD
:100F9000A11D661F829F2227B00DA11D621F739F96
:100FA000B00DA11D621F839FA00D611D221F749FA4
:100FB0003327A00D611D231F849F600D211D822FEB
:100FC000762F6A2F11249F5750408AF0E1F0882332
:100FD0004AF0EE0FFF1FBB1F661F771F881F91503F
:100FE0005040A9F79E3F510570F060CFAACF5F3FF8
:100FF000ECF3983EDCF3869577956795B795F79572
:10100000E7959F5FC1F7FE2B880F911D96958795F9
:1010100097F90895A1E21A2EAA1BBB1BFD010DC072
:10102000AA1FBB1FEE1FFF1FA217B307E407F50798
:1010300020F0A21BB30BE40BF50B661F771F881F74
:10104000991F1A9469F760957095809590959B010A
:10105000AC01BD01CF0108950790F691E02D1994E0
:10106000EF920F931F93CF93DF93E80147FF02C0E6
:1010700034E101C034E0E42FFF27E7FDF095F7FFEE
:1010800003C0F195E195F109E32E022F2E2FAE0159
:1010900022D2CE01DF91CF911F910F91EF90089551
:1010A000CF93DF938230910510F482E090E0E091DD
:1010B000CA02F091CB0220E030E0A0E0B0E030972F
:1010C00039F14081518148175907B8F0481759073D
:1010D00071F482819381109729F013969C938E93DB
:1010E00012972CC09093CB028093CA0227C021157F
:1010F000310531F04217530718F0A901DB0101C097
:10110000EF019A01BD01DF010280F381E02DD7CF0D
:1011100021153105F9F0281B390B2430310580F4F5
:101120008A819B816115710521F0FB019383828384
:1011300004C09093CB028093CA02FE01329644C051
:10114000FE01E20FF31F81939193225031093983FD
:1011500028833AC02091C8023091C902232B41F460
:1011600020910202309103023093C9022093C802F9
:1011700020910002309101022115310541F42DB773
:101180003EB74091040250910502241B350BE091BB
:10119000C802F091C902E217F307A0F42E1B3F0B1F
:1011A0002817390778F0AC014E5F5F4F24173507D9
:1011B00048F04E0F5F1F5093C9024093C8028193BD
:1011C000919302C0E0E0F0E0CF01DF91CF9108956C
:1011D000CF93DF93009709F487C0FC013297138205
:1011E0001282C091CA02D091CB02209781F4208153
:1011F0003181280F391F8091C8029091C90282174E
:10120000930779F5F093C902E093C8026DC0DE013F
:1012100020E030E0AE17BF0750F412964D915C917C
:1012200013979D014115510509F1DA01F3CFB383FD
:10123000A28340815181840F951F8A179B0771F407
:101240008D919C911197840F951F029691838083B5
:1012500012968D919C91139793838283211531056A
:1012600029F4F093CB02E093CA023EC0D901139651
:10127000FC93EE9312974D915D91A40FB51FEA1761
:10128000FB0779F480819181840F951F0296D90123
:1012900011969C938E938281938113969C938E9347
:1012A0001297E0E0F0E08A819B81009719F0FE013F
:1012B000EC01F9CFCE01029628813981820F931F6C
:1012C0002091C8023091C9022817390769F4309774
:1012D00029F41092CB021092CA0202C01382128229
:1012E000D093C902C093C802DF91CF9108956F9245
:1012F0007F928F929F92AF92BF92CF92DF92EF92A6
:10130000FF920F931F93CF93DF93EC01CB012097B4
:1013100079F4DF91CF911F910F91FF90EF90DF90C3
:10132000CF90BF90AF909F908F907F906F90B8CEEE
:10133000FE01E60FF71F9E0122503109E217F30765
:1013400008F4A8C0D9010D911C9111970617170731
:10135000B0F00530110508F49BC0A80144505109B4
:101360004617570708F494C002501109061B170BC3
:10137000019311936D937C93CF012ADF89C05B01A8
:10138000A01AB10A4E01800E911EA091CA02B0911E
:10139000CB02612C712C60E070E0109709F449C019
:1013A000A815B905C9F5ED90FC901197670142E0C9
:1013B000C40ED11CCA14DB0478F147018A189B08BB
:1013C000640142E0C40ED11C1296BC901297139691
:1013D000AC91B5E0CB16D10440F0B282A3839182E8
:1013E0008082D9018D939C9309C00E5F1F4F0E0D13
:1013F0001F1DF90111830083EB2DFA2F6115710573
:1014000031F0DB011396FC93EE93129741C0F093F9
:10141000CB02E093CA023CC06D917C911197661695
:10142000770608F43B01BD0112960D90BC91A02DEA
:10143000B4CF6091C8027091C90268157905E9F4CA
:1014400068167906D0F440910002509101024115CE
:10145000510541F44DB75EB76091040270910502E9
:10146000461B570BE417F507A8F4F093C902E09365
:10147000C802F901918380830BC012DE7C010097C2
:1014800049F0A801BE0117D0CE01A2DEC70104C0F9
:10149000CE0102C080E090E0DF91CF911F910F91CB
:1014A000FF90EF90DF90CF90BF90AF909F908F9084
:1014B0007F906F900895FB01DC0102C001900D92B6
:1014C00041505040D8F70895FB01DC0101900D9286
:1014D0000020E1F708956F927F929F92AF92BF92A2
:1014E000CF92DF92EF92FF920F931F93CF93DF93F0
:1014F000CDB7DEB729970FB6F894DEBF0FBECDBFCC
:101500006A01B22E102F0C3320F4FF24F394F00E56
:1015100002C04CE3F42E0F2D27E0AE014F5F5F4F6A
:1015200057D17981272F2970213031F0E1FC06C095
:10153000E0FC06C060E005C06DE203C06BE201C0E4
:1015400060E2AE2DA07173FF36C0662311F084E017
:1015500001C083E08B1510F4B81A01C0B12CA111A1
:101560000BC0F6018B2D90E2882319F091938150E6
:10157000FBCFCB0CD11CB12C662331F0F60160837C
:1015800096012F5F3F4F6901C6010396E2FE05C039
:101590002EE4F601208331E404C02EE6F601208318
:1015A00031E631832283FC012B2D30E22223F1F13D
:1015B00031932150FBCF72FF40C0662311F084E0CD
:1015C00001C083E08B1510F4B81A01C0B12CA11131
:1015D0000BC0F6018B2D90E2882319F09193815076
:1015E000FBCFCB0CD11CB12C662331F0F60160830C
:1015F00096012F5F3F4F6901C6010396E2FE07C0C7
:1016000029E4F60120832EE4218326E406C029E69E
:10161000F60120832EE6218326E62283FC012B2D72
:1016200030E2222319F031932150FBCFFC01EB0D66
:10163000F11D10828EEF9FEFB7C0B1E0611101C0C4
:10164000B0E04B2F50E01816190624F49C012F5FD0
:101650003F4F02C021E030E0240F351F112329F055
:10166000412F50E04F5F5F4F02C040E050E0420F1B
:10167000531F2B2D30E04217530714F4B41A01C046
:10168000B12C2E2D287159F4F6012B2D30E2222396
:1016900019F031932150FBCFCB0CD11CB12CBB23C3
:1016A00031F0F601608396012F5F3F4F6901A11170
:1016B0000BC0F6012B2D30E3222319F0319321507A
:1016C000FBCFCB0CD11CB12CF80E0A81372F307117
:1016D000A32E74FF03C0013309F4FA941F142CF4F1
:1016E0002F2D293018F028E001C021E0682F392F74
:1016F00097FF02C060E030E0462F532F612C712C21
:101700003EE2932EBC01621B71099B01DC01A41B0C
:10171000B50BE1E0F0E0EC0FFD1FAE0FBF1FE12EB7
:10172000F12CF194E194F1084F3FFFEF5F0731F4A2
:10173000F6019082B6016F5F7F4F6B0184179507AA
:101740004CF02417350734F4BD01660D771DFB01FD
:10175000118101C010E341505109FFEF6F1A7F0A58
:10176000B6016F5F7F4F4E155F0524F0F6011083C1
:101770006B01DACF4817590739F4063320F40533E3
:1017800019F4A11001C011E3F6011083FB018B2DA8
:1017900090E2882319F091938150FBCFFB01EB0D70
:1017A000F11D108280E090E029960FB6F894DEBF1C
:1017B0000FBECDBFDF91CF911F910F91FF90EF90A2
:1017C000DF90CF90BF90AF909F907F906F900895E3
:1017D000283008F027E03327DA01990F311D87FD03
:1017E000916000966105710539F432602E5F3D937A
:1017F00030E32A95E1F708959F3F30F08038710576
:10180000610509F03C5F3C5F3D93913008F08068D2
:10181000911DDF93CF931F930F93FF92EF92192F98
:10182000987F9695E92F96959695E90FFF27E250B8
:10183000FE4F99273327EE24FF24A701E7010590E7
:101840000894079428F4360FE71EF81E491F511D0F
:10185000660F771F881F991F0694A1F705900794BC
:1018600028F4E70EF81E491F561FC11D770F881F69
:10187000991F661F0694A1F70590079428F4F80EA7
:10188000491F561FC71FD11D880F991F661F771F3D
:101890000694A1F70590079420F4490F561FC71F1F
:1018A000D81F990F661F771F881F0694A9F7849188
:1018B0001095177041F0D695C79557954795F794B1
:1018C000E7941A95C1F7E4EAF1E068941590159150
:1018D00035916591959105907FE27395E118F10A34
:1018E000430B560BC90BD009C0F7E10CF11E431F87
:1018F000561FC91FD01D7EF4703311F48A95E6CFB0
:10190000E894015030F0080F0AF40027021708F499
:10191000202F2395022F7A3328F079E37D932A959F
:10192000E9F710C07D932A9589F6069497956795F7
:10193000379517951794E118F10A430B560BC90B0D
:10194000D00998F023957E9173957A3308F070E36F
:101950007C932013B8F77E9170617D9330F083956E
:1019600071E37D9370E32A95E1F71124EF90FF90E6
:101970000F911F91CF91DF91992787FD9095089541
:04198000F894FFCF09
:101984000000CC0280000D003600010D00000000B4
:0E19940000A4021304F90112020402830200EF
:00000001FF
