:1000000021C1000050C100004EC100004CC10000E1
:100010004AC1000048C1000046C1000044C10000C0
:1000200042C1000040C100003EC100003CC10000D0
:100030003AC1000038C1000036C1000034C10000E0
:1000400032C1000030C100002EC100002CC10000F0
:100050002AC1000028C1000026C100000C945813DA
:1000600022C100000C946B100C94A1101CC1000064
:100070001AC1000018C1000016C1000014C1000020
:1000800012C1000010C100000EC100000CC1000030
:100090000C9416110C944C1106C10000A1C700006D
:1000A00002C1000000C10000FEC00000FCC0000052
:1000B000FAC00000F8C00000F6C00000F4C0000064
:1000C000F2C00000F0C00000EEC00000ECC0000074
:1000D000EAC00000E8C00000E6C00000E4C0000084
:1000E000E2C00000B214B514A414A814AE14EC14A9
:1000F000B914BD14C314C714CB14D114D514D91416
:10010000EC14DF14E314E71400000A0B02090C0DD1
:100110000E080703040100000000000000000000BA
:1001200000000000000000000000000000000000CF
:10013000000000001211100000000000000000008C
:1001400000000000000000000000000000000102AC
:1001500010202008081020401020408002010201D9
:100160000804020101020408102040808040201091
:1001700008040201800402018040201008040201EA
:100180000804020101020408102040800102040852
:10019000102040800505050507050808080802022B
:1001A00002020A0A08080404040401010101010111
:1001B00001010303030303030303040707070C0CF4
:1001C0000C0C0C0C0C0C02020202060606060606BB
:1001D00006060B0B0B0B0B0B0B0B00002000230078
:1001E000260029002C002F0032000001000003012E
:1001F0000601090100002200250028002B002E0026
:100200003100340002010000050108010B0100006B
:100210002100240027002A002D00300033000101B6
:100220000000040107010A012D06BC09BF09CA0923
:10023000D509E009EE09F909040A0E0A170AD310D4
:100240007E110E1211241FBECFEFD1E2DEBFCDBF53
:1002500000E00CBF12E0A0E0B2E0E6E0F0E300E076
:100260000BBF02C007900D92A83DB107D9F725E05A
:10027000A8EDB2E001C01D92A93DB207E1F712E07E
:10028000C4E4D2E000E006C022970109FE010BBFE2
:100290000E94FD17C832D10780E00807A9F70E9425
:1002A0004C130C940118ACCECF93DF9326E040E0C2
:1002B00052EC61E070E080E994E00E940B1026E0CF
:1002C00040E052EC61E070E08DE295E00E940B109E
:1002D00078948AEA8093E60285E094E00E94B3096C
:1002E00080E493E00E94200A60E080E493E00E94B2
:1002F0006F0C8EE293E00E941C0D0E94A21360938B
:100300006B0370936C0380936D0390936E030E9454
:10031000A2136093670370936803809369039093BB
:100320006A030E94A2136093630370936403809333
:100330006503909366030E94A21360935F0370931A
:100340006003809361039093620361E085E30E9400
:10035000ED1461E085E30E94261561E083E30E94CD
:10036000ED1461E083E30E94261561E081E30E94C1
:10037000ED1461E081E30E9426151092E8021092CC
:10038000E9021092EA02CBEFD2E085E0888361E0D7
:100390000E94ED1460E088810E942615C4EFD2E02F
:1003A00086E0888361E00E94ED1460E088810E940D
:1003B0002615CDEED2E087E0888361E00E94ED143F
:1003C00060E088810E9426151092E5021092E402F6
:1003D00060E085E00E94261560E086E00E94261518
:1003E00060E087E00E94261568EE73E080E090E010
:1003F0000E94D1138FEF8093EC02DF91CF9108958B
:1004000080E493E00E94A30CEBE4F3E020833183CB
:10041000428353836483758386839783832F90E01D
:100420005CE3259F800D911D1124909358038093C8
:10043000570360E17EE0269FC001279F900D1124A5
:100440002CE3329F800D911D1124840F911DAA274A
:1004500097FDA095BA2F8093530390935403A093D4
:100460005503B093560308958F929F92AF92BF9217
:10047000CF92DF92EF92FF920E94A213C090670387
:10048000D0906803E0906903F0906A036C197D09CD
:100490008E099F09C0900C02D0900D02EE24D7FC6B
:1004A000E094FE2C6C157D058E059F05A8F160E09B
:1004B0008EE293E00E94BC0E4B015C0140E060E0E4
:1004C0008EE293E00E945F0E6B017C0120E030E041
:1004D00048EC52E4C501B4010E9472170E949016C4
:1004E0007093DB026093DA0220E030E048EC52E4E3
:1004F000C701B6010E9472170E9490167093D9022C
:100500006093D8020E94A2136093670370936803FC
:100510008093690390936A03FF90EF90DF90CF90F0
:10052000BF90AF909F908F900895CF92DF92EF92FF
:10053000FF9223E333E343E75FE360915B03709152
:100540005C0380915D0390915E030E9472176B01C2
:100550007C0186E30E947514BC01882777FD809595
:10056000982F0E94BE162DEC3CEC4CE45DE30E94FB
:1005700072179B01AC01C701B6010E94C0156B0147
:100580007C0160935B0370935C0380935D039093A5
:100590005E0320E030E045EA53E40E94241687FF22
:1005A00013C020E030E446EA54E4C701B6010E94DB
:1005B000721720E030E844E953E40E94281620E056
:1005C00030E040E451E410C120E030E045EA53E47B
:1005D000C701B6010E946E1787FD1DC020E030E004
:1005E00047EE53E4C701B6010E94241687FF13C0EB
:1005F00020E030E846E354E4C701B6010E947217D8
:1006000020E030E044E053E40E94281620E030E887
:1006100047EA53E412C120E030E047EE53E4C7015B
:10062000B6010E946E1787FD1DC020E030E84FEF35
:1006300053E4C701B6010E94241687FF13C020E0CF
:1006400030E04DEC53E4C701B6010E94721720E080
:1006500030E044E452E40E94281620E030EA4DECF9
:1006600054E4EBC020E030E84FEF53E4C701B6019B
:100670000E946E1787FD1DC020E030E04FE054E47B
:10068000C701B6010E94241687FF13C020E030E0A6
:1006900042ED53E4C701B6010E94721720E030E03A
:1006A00044E752E40E94281620E030E04EE554E48E
:1006B000C4C020E030E04FE054E4C701B6010E941E
:1006C0006E1787FD1DC020E030E84AE154E4C70101
:1006D000B6010E94241687FF13C020E030E044E3F7
:1006E00053E4C701B6010E94721720E030E048E3EE
:1006F00052E40E94281620E030EC4AE454E474C02E
:1007000020E030E84AE154E4C701B6010E946E17C8
:1007100087FD1DC020E030E841E354E4C701B60185
:100720000E94241687FF13C020E030E04BE953E419
:10073000C701B6010E94721720E030E048EB52E496
:100740000E94281620E030E64FE854E44DC020E037
:1007500030E841E354E4C701B6010E946E1787FDFB
:100760001DC020E030E044E454E4C701B6010E941B
:10077000241687FF13C020E030E04AEF53E4C7019E
:10078000B6010E94721720E030E044E952E40E9472
:10079000281620E030E24DE954E44FC020E030E07C
:1007A00044E454E4C701B6010E946E1787FD1FC0E0
:1007B00020E030E84FE554E4C701B6010E9424165A
:1007C00087FF15C020E030E046E953E4C701B601D9
:1007D0000E94721720E030E04CED52E40E9428168F
:1007E00020E030EA4DEE54E40E94C01528C020E01D
:1007F00030E84FE554E4C701B6010E946E1787FD4B
:100800003CC020E030E848E654E4C701B6010E944D
:100810002416181694F120E030E040E254E4C701B9
:10082000B6010E94721720E030E040E152E40E94DD
:10083000281620E034E844E356E40E94BF156B011B
:100840007C0120E030E040E05FE30E94721760939B
:100850006F037093700380937103909372030E94EF
:1008600090167093DF026093DE02C701B6010E940A
:1008700090167093DD026093DC02FF90EF90DF90A2
:10088000CF900895CF93C0912603C13039F460E032
:1008900085E30E942615C093E80206C061E085E367
:1008A0000E9426151092E802CF9108958091570377
:1008B00090915803209191033091920382179307EE
:1008C00078F020918B0330918C038217930740F4CA
:1008D00060E085E30E94261581E08093E802089598
:1008E00020919303309194038217930738F020915D
:1008F0008D0330918E038217930750F32091950357
:10090000309196038217930738F020918F0330912E
:10091000900382179307E0F261E085E30E942615B9
:100920001092E8020895CF93C0912703C13039F4A3
:1009300060E083E30E942615C093E90206C061E0EF
:1009400083E30E9426151092E902CF9108958091C9
:1009500057039091580320918503309186038217A5
:10096000930778F020917F033091800382179307DB
:1009700040F460E083E30E94261581E08093E90261
:10098000089520918703309188038217930738F0E8
:1009900020918103309182038217930750F32091B5
:1009A000890330918A038217930738F020918303DB
:1009B0003091840382179307E0F261E083E30E94A1
:1009C00026151092E9020895CF93C0912803C130F3
:1009D00039F460E081E30E942615C093EA0206C064
:1009E00061E081E30E9426151092EA02CF910895FA
:1009F00080915703909158032091790330917A03A5
:100A00008217930778F02091730330917403821753
:100A1000930740F460E081E30E94261581E0809313
:100A2000EA02089520917B0330917C03821793079B
:100A300038F020917503309176038217930750F3B5
:100A400020917D0330917E038217930738F0209127
:100A500077033091780382179307E0F261E081E336
:100A60000E9426151092EA02089580912903813090
:100A700039F408DF6FE072E080E994E00E946612CA
:100A800080912903823039F411DF6FE072E080E950
:100A900094E00E94661280912903833061F461E042
:100AA00085E30E9426151092E8026BE372E080E96C
:100AB00094E00C946612089580912903813009F422
:100AC00032DF80912903823009F441DF80912903CC
:100AD000833031F461E083E30E9426151092E9022D
:100AE000089580912903813009F46EDF80912903F4
:100AF000823009F47DDF80912903833031F461E095
:100B000081E30E9426151092EA020895CF92DF92A7
:100B1000EF92FF9275DCC0905303D0905403E090A5
:100B20005503F09056038091FC029091FD02A09134
:100B3000FE02B091FF02B701A601481B590B6A0BD8
:100B40007B0B8091010390E0A0E0B0E048175907CB
:100B50006A077B0758F080910003813039F41092C6
:100B6000000360E08091FB020E9426158091F5024F
:100B70009091F602A091F702B091F802B701A60198
:100B8000481B590B6A0B7B0B8091FA0290E0A0E0A6
:100B9000B0E0481759076A077B0758F08091F902BF
:100BA000813039F41092F90260E08091F4020E94E1
:100BB00026158091EE029091EF02A091F002B09183
:100BC000F102C81AD90AEA0AFB0A8091F30290E0FE
:100BD000A0E0B0E0C816D906EA06FB0678F08091DE
:100BE000F202813059F41092F20260E08091ED023D
:100BF000FF90EF90DF90CF900C942615FF90EF9030
:100C0000DF90CF900895EF92FF920F931F93CF93B1
:100C1000DF931F92CDB7DEB77C014983F1DB0091F2
:100C20005303109154032091550330915603F7015B
:100C300001831283238334834981468361E0808169
:100C40000E94261581E0F70185830F90DF91CF91F7
:100C50001F910F91FF90EF9008958BE493E017D4CC
:100C600045E164E180E493E020D426E046E161E2DE
:100C70008EE293E0C0C68DE295E00E94FD0E892BC6
:100C800079F028E230E042E053E06FEF8DE295E04A
:100C90000E94161368E472E080E994E00E946612F4
:100CA00010925A031092590380910203909103030A
:100CB0009093920380939103809114039091150374
:100CC00090938C0380938B03809108039091090388
:100CD000909394038093930380911A0390911B0344
:100CE00090938E0380938D0380910E0390910F0358
:100CF0009093960380939503809120039091210314
:100D00009093900380938F03809104039091050347
:100D10009093860380938503809116039091170327
:100D20009093800380937F0380910A0390910B033B
:100D3000909388038093870380911C0390911D03F7
:100D4000909382038093810380911003909111030B
:100D500090938A03809389038091220390912303C7
:100D600090938403809383038091060390910703FB
:100D700090937A03809379038091180390911903DB
:100D8000909374038093730380910C0390910D03EF
:100D900090937C0380937B0380911E0390911F03AB
:100DA00090937603809375038091120390911303BF
:100DB00090937E0380937D0380912403909125037B
:100DC000909378038093770361E772E080E994E081
:100DD0000E945B124AE050E06091290380E994E0B0
:100DE0000C94D5120F931F93CF93DF930E94A213FD
:100DF00000915F03109160032091610330916203C1
:100E0000601B710B820B930B00910A0210910B0275
:100E1000222717FD2095322F60177107820793074D
:100E2000C8F0C8EDD2E069918DE295E00E945C12B5
:100E300082E0CD3ED807B9F78DE295E00E94860F9B
:100E40000E94A21360935F03709360038093610319
:100E500090936203DF91CF911F910F910895CF92EC
:100E6000DF92EF92FF92CCDAFFDA5FDB04DF4EDE37
:100E7000FCDD22DE36DEB6DF8091E702813009F04C
:100E800063C0BEDAC0905303D0905403E090550382
:100E9000F090560380912A0390912B03A0912C038C
:100EA000B0912D03A7019601281B390B4A0B5B0B50
:100EB000DA01C9018D329140A105B10508F444C0A1
:100EC0008091DE029091DF028C3B924050F542E02F
:100ED00050E060E070E08BEF92E095DE68EE73E04A
:100EE00080E090E00E94D11342E050E060E070E0CA
:100EF00084EF92E088DE68EE73E080E090E00E948C
:100F0000D11342E050E060E070E08DEE92E07BDED5
:100F1000C0922A03D0922B03E0922C03F0922D036F
:100F200013C060E08091FB020E94261560E0809172
:100F3000F4020E94261560E08091ED02FF90EF9090
:100F4000DF90CF900C942615FF90EF90DF90CF901C
:100F500008951092040481E0809302041092010429
:100F600061E084E10E94261561E085E10E9426157A
:100F7000E9EBF0E080818E7F808380818D7F8083AC
:100F800088E48093B80085E48093BC0008956132C2
:100F900098F420910404243089F46093B903FC018F
:100FA0008BEB93E0DC012A2F281B261718F42191E4
:100FB0002D93F9CF80E0089581E0089582E00895AF
:100FC00085ED8093BC008091BC0084FDFCCF109225
:100FD0000404089585EC8093BC00109204040895E5
:100FE0001F920F920FB60F9211240BB60F922F93F0
:100FF0003F934F935F936F937F938F939F93AF93A1
:10100000BF93EF93FF938091B900887F803609F4F6
:101010009DC070F5883209F45CC090F4803109F409
:1010200055C038F4882309F4F3C0883009F44EC061
:10103000F2C0883109F44DC0803209F45EC0EBC0C3
:10104000803409F469C050F4803309F456C0883301
:1010500009F0E1C080939703BDDFDDC0803509F45E
:101060004FC0883509F45DC0883409F0D4C0D2C0BF
:10107000883909F4C3C0A8F4883709F467C038F484
:10108000883609F463C0803709F460C0C4C088386A
:1010900009F4B4C0803909F45FC0803809F0BBC0DE
:1010A0005BC0803B09F482C038F4803A09F466C022
:1010B000883A09F47BC0AFC0803C09F4A3C0883CE7
:1010C00009F4A0C0883B09F486C0A5C08091030440
:1010D00010C09091DC038091DB03981770F5E091CC
:1010E000DC0381E08E0F8093DC03F0E0E352FC4FE1
:1010F00080818093BB0085EC82C0809397038AC077
:10110000E091DC0381E08E0F8093DC038091BB00D3
:10111000F0E0E352FC4F80839091DC038091DB038D
:101120006AC0E091DC0381E08E0F8093DC03809144
:10113000BB00F0E0E352FC4F8083809102048111F8
:1011400069C081E08093010484EA5DC083E08093FC
:10115000040410929803CFCF80919803803208F056
:101160004DC0E091980381E08E0F809398038091A9
:10117000BB00F0E0E756FC4F8083BDCF2BDF8091B2
:101180009803803230F4E0919803F0E0E756FC4F8A
:1011900010826091980370E0E091FD03F091FE03EE
:1011A00089E993E019951092980335C084E0809303
:1011B00004041092BA031092B903E091FF03F09176
:1011C000000419958091B903811105C081E08093D5
:1011D000B9031092BB03E091BA0381E08E0F8093B4
:1011E000BA03F0E0E554FC4F80818093BB009091FE
:1011F000BA038091B903981708F47DCF85E88093EE
:10120000BC0009C085EC8093BC001092040403C0AC
:1012100010929703D5DEFF91EF91BF91AF919F910F
:101220008F917F916F915F914F913F912F910F908F
:101230000BBE0F900FBE0F901F9018958091340435
:1012400090E020913504821B910908952091350486
:1012500080913404281750F4E22FF0E0EA5CFB4F51
:10126000808190E02F5F2093350408958FEF9FEFEA
:101270000895E091350480913404E81730F4F0E0EB
:10128000EA5CFB4F808190E008958FEF9FEF089517
:101290000895CF92DF92EF92FF920F931F93CF9317
:1012A000DF937C01CB018A0120911104222389F074
:1012B000EB016B01C40ED51ECC15DD0561F0699103
:1012C000D701ED91FC910190F081E02DC7011995B6
:1012D000F3CF642F5CDEC801DF91CF911F910F9196
:1012E000FF90EF90DF90CF900895CF93DF931F9200
:1012F000CDB7DEB76983209111042223D1F020916C
:101300001204203240F021E030E0FC0133832283DC
:1013100080E090E014C080911304E82FF0E0EC5ED0
:10132000FB4F998190838F5F809313048093120405
:1013300004C061E0CE0101962ADE81E090E00F90CA
:10134000DF91CF910895FC011382128248EE53E0A1
:1013500060E070E0448355836683778386EA92E099
:101360009183808308951092350410923404109272
:10137000130410921204EDCD85E094E0E4CF0F93B6
:1013800000E020E040E060E086E594E00E94021288
:101390000F9108950F9300E020E040E060E08CE5BD
:1013A00094E00E9402120F9108950F9300E020E054
:1013B00040E060E082E694E00E9402120F910895FE
:1013C0000F9300E020E040E060E080E794E00E94BE
:1013D000021288E694E00F910C94F8110F9300E04C
:1013E00020E040E060E086E794E00E9402120F9166
:1013F00008950F9300E020E040E060E08CE794E087
:101400000E9402120F9108950F9300E020E040E047
:1014100060E082E894E0F6D70F9108951092890475
:101420001092880410928B0410928A0408951092EE
:101430008D0410928C0410928F0410928E040895E3
:10144000FC0181818431F1F480818531D9F481E01E
:10145000828761E084E10E94261561E085E10E94B7
:1014600026158091B9008E7F8093B9008091B900D4
:101470008D7F8093B9008CE08093B80085E08093E5
:10148000BC000895128661E080810C94ED14FC018B
:101490008AED97E09683858381E08483838310823D
:1014A0001182128285E087830895FC016183408365
:1014B00008950F931F93CF93DF931F92CDB7DEB79D
:1014C0008C01262F61E0FC01818129830E94ED14AB
:1014D00061E0F80181810E94261561E0F8018081B8
:1014E0000E94261560E0F80181810E94261560E0C7
:1014F000F80180810E942615298141E0F801608170
:1015000081810F90DF91CF911F910F910C948315E2
:10151000CF93DF93EC0161E089810E94ED1460E0DC
:1015200089810E94261561E088810E94261561E06C
:1015300089810E94261560E08981DF91CF910C940A
:10154000ED14CF93DF93EC0161E089810E94ED14EB
:1015500060E088810E94261561E089810E9426153D
:1015600061E088810E94261560E088810E9426152E
:1015700060E08981DF91CF910C94ED14CF93DF93DC
:10158000EC0161E089810E94ED1460E088810E9495
:10159000261560E089810E94261561E088810E94FD
:1015A000261560E088810E94261560E08981DF9120
:1015B000CF910C94ED14CF93DF93EC0160E089811F
:1015C0000E94ED1461E088810E94261589810E94A5
:1015D0005B150197D9F360E08881DF91CF910C947E
:1015E0002615FF920F931F93CF93DF93EC0160E0DA
:1015F00089810E94ED1407E010E0F12C61E0888100
:101600000E94261589810E945B159927002E01C032
:10161000880F0A94EAF7F82A81E090E00E94081403
:1016200060E088810E9426150150110938F78F2D3E
:10163000DF91CF911F910F91FF9008950F931F930A
:10164000CF93DF931F92CDB7DEB78C01262F61E0D9
:10165000FC01818129830E94ED14298141E0F80178
:10166000608181810F90DF91CF911F910F910C9438
:1016700083150F931F93CF93DF93EC018A85882303
:1016800009F44DC084EE8093BC008091BC0087FFBC
:10169000FCCF80ED8093BB0084EC8093BC008091F4
:1016A000BC0087FFFCCF1092BB0084EC8093BC0091
:1016B0008091BC0087FFFCCF84EE8093BC008091BA
:1016C000BC0087FFFCCF81ED8093BB0084EC80934E
:1016D000BC008091BC0087FFFCCF80E090E034EC40
:1016E0003093BC002091BC0027FFFCCF2091BB00B1
:1016F000FE01E80FF91F228301968730910581F7DB
:1017000084E88093BC008091BC0087FFFCCF84E913
:101710008093BC00DF91CF911F910F91089560EDF0
:10172000CE01C7DECE0147DF60E0CE0187DFCE010C
:1017300042DF61EDCE01BDDECE013DDF00E010E015
:10174000CE014FDFFE01E00FF11F8283CE01063094
:10175000110511F013DF01C0F4DE0F5F1F4F0730DA
:10176000110571F7CE01DF91CF911F910F91D0CE6E
:101770001F93CF93DF93EC01162F8A85882309F4FA
:101780003FC084EE8093BC008091BC0087FFFCCFFB
:1017900080ED8093BB0084EC8093BC008091BC0002
:1017A00087FFFCCF1093BB0084EC8093BC0080913A
:1017B000BC0087FFFCCF84EE8093BC008091BC000E
:1017C00087FFFCCF81ED8093BB0084EC8093BC004D
:1017D0008091BC0087FFFCCF84EC8093BC0080919B
:1017E000BC0087FFFCCF1091BB0084E88093BC0055
:1017F0008091BC0087FFFCCF84E98093BC0016C0B9
:1018000060EDCE0156DECE01D6DE612FCE0116DFB1
:10181000CE01D1DE61EDCE014CDECE01CCDECE01BB
:10182000E0DE182FCE018DDECE0172DE812FDF913A
:10183000CF911F910895EF92FF921F93CF93DF9363
:101840001F92CDB7DEB77C01162FFC01828588235D
:1018500069F184EE8093BC008091BC0087FFFCCFCF
:1018600080ED8093BB0084EC8093BC008091BC0031
:1018700087FFFCCF1093BB0084EC8093BC00809169
:10188000BC0087FFFCCF4093BB0084EC8093BC007E
:101890008091BC0087FFFCCF84E98093BC000F904F
:1018A000DF91CF911F91FF90EF90089560EDC701F8
:1018B0004983FFDDC7017FDE612FC701BFDEC7019E
:1018C0007ADE4981642FC701B9DEC70174DEC70122
:1018D0000F90DF91CF911F91FF90EF9019CE1F9342
:1018E000CF93DF93EC01162F60E042DF482F10FB0F
:1018F00047F960E0CE01DF91CF911F919CCF962FE9
:101900009695969596959E70292F220F220F290F56
:10191000862F8F70820F0895962F9F7067FF09C0E2
:1019200065FB662760F9892F2CE0629F800D1124EA
:1019300008956073669566956695862F880F880F63
:10194000860F890F08950F931F93CF93DF93CDB721
:10195000DEB760970FB6F894DEBF0FBECDBF8C0127
:10196000CE01099694DDC80184DEF8016281C801C8
:10197000C6DF8B87F8016381C801C1DF8A87F80160
:101980006481C801C9DF8987F8018581888B6681F8
:10199000C801B5DF8C87F8016781C801B0DF8D878A
:1019A000F8018085982F92959F708F70FAE09F9F25
:1019B000800D112490E08053984F9F878E8788E098
:1019C000FE013996DE01119601900D928A95E1F79C
:1019D00029813A814B815C816D817E818F819885DF
:1019E00060960FB6F894DEBF0FBECDBFDF91CF91EA
:1019F0001F910F910895DC0115966C93159716961B
:101A00004C93169770E0FB01E25BFE4FE491179652
:101A1000EC931797FB01EC56FE4F649118966C936C
:101A2000189740E85EE360E070E01D964D935D938B
:101A30006D937C9350970895CF93DF93EC0162E010
:101A40008D81CBD740E358EF6FEF7FEF49875A87FF
:101A50006B877C87DF91CF910895AF92BF92CF9231
:101A6000DF92EF92FF920F931F93CF93DF93EC01DE
:101A7000AF80662311F0BA2C01C0B12CA885B0E06C
:101A8000AA0FBB1FA652BE4F40E050E0BA01FD01B5
:101A900085919491FC0180818A218B1112C08A0169
:101AA0009B010F5F1F4F2F4F3F4FCD84DE84EF848C
:101AB000F8884C155D056E057F0538F4B901A8015D
:101AC000E6CF342F252FCB0104C030E020E080E0AA
:101AD00090E0632F722FDF91CF911F910F91FF90B4
:101AE000EF90DF90CF90BF90AF900895CF92DF92AC
:101AF000EF92FF920F931F93CF93DF93CDB7DEB793
:101B0000C054D1400FB6F894DEBF0FBECDBF8C01DC
:101B1000F62E18D6F11016C0F801C184D284E384E1
:101B2000F4849B01AC012C193D094E095F09690140
:101B30007A0130EDC31637E0D306E104F10410F466
:101B40008189ADC0F8016187728783879487148289
:101B5000138212821182108261E0858177D76AEF49
:101B600070E080E090E01DD661E0F801858135D716
:101B700060E0F80185816AD764E170E080E090E080
:101B800010D6F89461E0F801858160D788E290E092
:101B90003FD662E0F801858120D78AE090E038D610
:101BA00060E0C8015ADF672B682B692B39F061E0D0
:101BB000C80153DF672B682B692B21F4F801118AC8
:101BC00078946CC06E01FFEBCF1AFEEFDF0A9E0126
:101BD0002F5F3F4F790160E0C8013FDFF70160836D
:101BE00071838283938361E0C80137DFF7016483E7
:101BF000758386839783F8E0EF0EF11CEC14FD04E7
:101C000051F778949E012F5F3F4F790120E030E03B
:101C1000F701408151816281738184819581A68120
:101C2000B7814115510561057105B1F10097A10515
:101C3000B10591F1F901F595E795F595E795F595DC
:101C4000E795E00FF11FD080DD0C481759076A07B0
:101C50007B0710F0D08203C08D2D816080832F5FC1
:101C60003F4FF8E0EF0EF11C2832310589F6F801FC
:101C7000248130E04081818190E0840F911D428178
:101C8000840F911D4381840F911D992728173907CF
:101C900019F481E0818B03C0F801118A80E0C05CF7
:101CA000DE4F0FB6F894DEBF0FBECDBFDF91CF91F0
:101CB0001F910F91FF90EF90DF90CF900895CF92FA
:101CC000DF92EF92FF920F931F93CF93DF93EC017C
:101CD000162F642F0BDF882309F441C08E818B30CF
:101CE00031F008F43CC08551823040F038C06A8140
:101CF00070E080E090E00E94BC1623C00A81602F53
:101D00006F7770E080E090E00E94BE1620E030E047
:101D100040E853E40E9472176B017C016B8170E014
:101D200080E090E00E94BE169B01AC01C701B601A5
:101D300027D72DEC3CEC4CEC5DE30E94721707FDBD
:101D40009058112381F026E636E646EE5FE30E94C6
:101D5000721720E030E040E052E412D704C060E0A7
:101D600070E080EC9FE7DF91CF911F910F91FF9082
:101D7000EF90DF90CF900895CF92DF92EF92FF9295
:101D8000CF93DF93EC0160E0B1DE882359F18E81BF
:101D90008B3011F138F18551823020F5688170E087
:101DA00080E090E0E9D720E030E040E853E40E9492
:101DB00072176B017C01698170E080E090E0DED7F2
:101DC0009B01AC01C701B601DBD62DEC3CEC4CEC21
:101DD0005DE30E9472170AC0688170E080E090E0C5
:101DE000CBD704C060E070E080EC9FE7DF91CF913B
:101DF000FF90EF90DF90CF900895FC01818D228DB0
:101E000090E0805C9F4F821B91098F739927089502
:101E1000FC01918D828D981731F0828DE80FF11DB4
:101E2000858D90E008958FEF9FEF0895FC01918DCF
:101E3000828D981761F0828DDF01A80FB11D5D962C
:101E40008C91928D9F5F9F73928F90E008958FEF9A
:101E50009FEF08958AEC90E1892B39F080E090E0C3
:101E6000892B19F097D1811124C085E791E1892B45
:101E700039F080E090E0892B19F037D281111CC035
:101E800080E090E0892B41F080E090E0892B21F008
:101E90000E940000811113C080E090E0892BA1F026
:101EA00080E090E0892B81F00E94000081110AC03F
:101EB00008950E940000D9CF0E940000E1CF0E9447
:101EC0000000EACF0C9400000895FC01848DDF012E
:101ED000A80FB11DA35ABF4F2C91848D90E001969D
:101EE0008F739927848FA689B7892C93A089B1898C
:101EF0008C9180648C93938D848D981306C0028896
:101F0000F389E02D80818F7D80830895CF93DF93C7
:101F1000EC01888D8823C1F0EA89FB89808185FDE9
:101F200005C0A889B9898C9186FD0EC00FB607FC43
:101F3000F5CF808185FFF2CFA889B9898C9185FF83
:101F4000EDCFCE01C2DFE8CFDF91CF910895CF92E0
:101F5000DF92FF920F931F93CF93DF931F92CDB722
:101F6000DEB76C0181E0D60158968C9358975B964A
:101F70009C915B975C968C915C97981307C05096E8
:101F8000ED91FC915197808185FD2DC0F601038D67
:101F900010E00F5F1F4F0F731127F02EF601848D95
:101FA000F81210C00FB607FCF9CFD6015096ED918C
:101FB000FC915197808185FFF1CFC601698385DF50
:101FC0006981ECCF838DE80FF11DE35AFF4F6083E9
:101FD000D6015B960C935B975296ED91FC915397CB
:101FE000808180620CC0D6015696ED91FC91579786
:101FF00060835096ED91FC9151978081806480833D
:1020000081E090E00F90DF91CF911F910F91FF90B1
:10201000DF90CF900895BF92CF92DF92EF92FF9220
:10202000CF93DF93EC016A017B01B22EE889F98935
:1020300082E08083411581EE58076105710599F0B2
:1020400060E079E08DE390E0A7019601AED72150E2
:10205000310941095109569547953795279521151D
:1020600080E1380790F0E889F989108260E874E827
:102070008EE190E0A701960198D7215031094109DE
:1020800051095695479537952795EC85FD85308301
:10209000EE85FF852083188EEC89FD89B082EA8960
:1020A000FB89808180618083EA89FB8980818860E7
:1020B0008083EA89FB89808180688083EA89FB8943
:1020C00080818F7D8083DF91CF91FF90EF90DF90B3
:1020D000CF90BF9008951F920F920FB60F921124C8
:1020E0000BB60F922F938F939F93EF93FF93E091F3
:1020F000A004F091A1048081E091A604F091A704CE
:1021000082FD12C090818091A9048F5F8F7320910E
:10211000AA04821751F0E091A904F0E0E057FB4FC8
:10212000958F8093A90401C08081FF91EF919F91C9
:102130008F912F910F900BBE0F900FBE0F901F909D
:1021400018951F920F920FB60F9211240BB60F9293
:102150002F933F934F935F936F937F938F939F93AF
:10216000AF93BF93EF93FF9380E994E0AEDEFF91CE
:10217000EF91BF91AF919F918F917F916F915F91FF
:102180004F913F912F910F900BBE0F900FBE0F906C
:102190001F90189580E994E030DE21E0892B09F446
:1021A00020E0822F0895109293041092920488EEFA
:1021B00093E0A0E0B0E08093940490939504A09302
:1021C0009604B093970486EB92E0909391048093E9
:1021D000900485EC90E090939D0480939C0484ECA3
:1021E00090E090939F0480939E0480EC90E0909305
:1021F000A1048093A00481EC90E09093A3048093C9
:10220000A20482EC90E09093A5048093A40486EC51
:1022100090E09093A7048093A6041092A9041092D2
:10222000AA041092AB041092AC0408951F920F926E
:102230000FB60F9211240BB60F922F938F939F938B
:10224000EF93FF93E0913D05F0913E058081E09191
:102250004305F091440582FD12C0908180914605AE
:102260008F5F8F7320914705821751F0E0914605EB
:10227000F0E0E35DFA4F958F8093460501C08081C1
:10228000FF91EF919F918F912F910F900BBE0F9027
:102290000FBE0F901F9018951F920F920FB60F92BE
:1022A00011240BB60F922F933F934F935F936F932D
:1022B0007F938F939F93AF93BF93EF93FF938DE2A1
:1022C00095E003DEFF91EF91BF91AF919F918F91C8
:1022D0007F916F915F914F913F912F910F900BBE26
:1022E0000F900FBE0F901F9018958DE295E085DD41
:1022F00021E0892B09F420E0822F08951092300507
:1023000010922F0588EE93E0A0E0B0E080933105B5
:1023100090933205A0933305B093340586EB92E099
:1023200090932E0580932D058DEC90E090933A05C7
:10233000809339058CEC90E090933C0580933B05AD
:1023400088EC90E090933E0580933D0589EC90E009
:102350009093400580933F058AEC90E0909342056E
:10236000809341058EEC90E0909344058093430563
:1023700010924605109247051092480510924905A3
:102380000895AF92BF92CF92DF92EF92FF920F9398
:102390001F93CF93DF936C017B01C0E0D0E000E09E
:1023A00010E0F601EC0FFD1F4AE050E06281C7012A
:1023B000F6D05C016EE2C7017FD08A0D9B1D080F2D
:1023C000191F2196C330D10561F74AE050E0F601AC
:1023D0006581C701E4D0800F911FDF91CF911F91DC
:1023E0000F91FF90EF90DF90CF90BF90AF90089546
:1023F00026EC32E0FC0131832083128213821482A6
:10240000158208950F93FC0186EC92E091838083FE
:1024100062834383248305830F91089586EC92E0C1
:102420009093CB058093CA051092CC051092CD05F0
:102430001092CE051092CF050895CF92DF92EF92C1
:10244000FF920F931F93CF93DF937C016A01EB01FF
:1024500000E010E00C151D0571F06991D701ED91B8
:10246000FC910190F081E02DC7011995892B19F09D
:102470000F5F1F4FEFCFC801DF91CF911F910F91D9
:10248000FF90EF90DF90CF9008956115710581F076
:10249000DB010D900020E9F7AD0141505109461BC9
:1024A000570BDC01ED91FC910280F381E02D199432
:1024B00080E090E00895E9CFDC01ED91FC9101907E
:1024C000F081E02D199468EC72E0DFCF0F931F9339
:1024D000CF93DF93EC01D9DF8C01CE01F4DF800FC5
:1024E000911FDF91CF911F910F9108958F929F922D
:1024F000AF92BF92DF92EF92FF920F931F93CF9311
:10250000DF93CDB7DEB7A1970FB6F894DEBF0FBE4D
:10251000CDBF7C01F42FD52ECB0119A2223008F4B7
:102520002AE08E010F5D1F4F822E912CA12CB12C21
:102530006F2F7D2DA501940138D5F22FD32ECA011E
:10254000015011096A3014F4E0E301C0E7E3E60F3B
:10255000D801EC93232B242B252B51F7B801C7016D
:1025600094DFA1960FB6F894DEBF0FBECDBFDF910A
:10257000CF911F910F91FF90EF90DF90BF90AF90A0
:102580009F908F9008952115310541F4DC01ED9164
:10259000FC910190F081E02D642F1994A7CF9A014E
:1025A000462F50E060E070E0EECF0F931F93CF9383
:1025B000DF93EC019A01462F50E060E070E0E3DF2A
:1025C0008C01CE0180DF800F911FDF91CF911F9191
:1025D0000F9108950F931F93CF93DF93EC01B2D027
:1025E000688779878A879B87E881F9810680F781E8
:1025F000E02DCE01199597FF14C0A4D00885198548
:102600002A853B85601B710B820B930B0C811D810E
:102610002E813F81601771078207930728F38FEFA0
:102620009FEFDF91CF911F910F910895AF92BF92CD
:10263000CF92DF92EF92FF920F931F93CF93DF938E
:102640006C01790121153105B1F08A01C0E0D0E0BB
:10265000A62EBB24A7FCB094C601BCDF97FD0EC01C
:102660008A159B0559F0F80181938F012196CE15AB
:10267000DF0591F703C080E090E001C0CE01DF915B
:10268000CF911F910F91FF90EF90DF90CF90BF906F
:10269000AF90089508950895C6D0FDDF0E945401BB
:1026A000CAE2DFE00E942F072097E1F3D3DBFACFE5
:1026B0001F920F920FB60F9211242F933F938F9377
:1026C0009F93AF93BF938091D1059091D205A09134
:1026D000D305B091D4053091D00523E0230F2D37D9
:1026E00020F40196A11DB11D05C026E8230F029616
:1026F000A11DB11D2093D0058093D1059093D205E3
:10270000A093D305B093D4058091D5059091D605BB
:10271000A091D705B091D8050196A11DB11D809358
:10272000D5059093D605A093D705B093D805BF9152
:10273000AF919F918F913F912F910F900FBE0F906E
:102740001F9018952FB7F8946091D1057091D2051C
:102750008091D3059091D4052FBF08953FB7F89489
:102760008091D5059091D605A091D705B091D80557
:1027700026B5A89B05C02F3F19F00196A11DB11DDC
:102780003FBF6627782F892F9A2F620F711D811DF9
:10279000911D42E0660F771F881F991F4A95D1F758
:1027A00008958F929F92AF92BF92CF92DF92EF9255
:1027B000FF926B017C01D2DF4B015C01C114D1049B
:1027C000E104F104E1F066DFC9DF681979098A09DB
:1027D0009B09683E73408105910580F321E0C21A90
:1027E000D108E108F10888EE880E83E0981EA11C4C
:1027F000B11CC114D104E104F10431F7DFCFFF9023
:10280000EF90DF90CF90BF90AF909F908F90089502
:102810008230910538F0880F991F880F991F05970E
:102820000197F1F70895789484B5826084BD84B5EA
:10283000816084BD85B5826085BD85B5816085BDBB
:10284000EEE6F0E0808181608083E1E8F0E01082D4
:10285000808182608083808181608083E0E8F0E015
:10286000808181608083E1EBF0E0808184608083FF
:10287000E0EBF0E0808181608083E1E9F0E080813D
:1028800082608083808181608083E0E9F0E08081E4
:1028900081608083E1EAF0E08081826080838081D2
:1028A00081608083E0EAF0E0808181608083E1E202
:1028B000F1E0808182608083808181608083E0E2BA
:1028C000F1E0808181608083EAE7F0E080818460CC
:1028D0008083808182608083808181608083808129
:1028E000806880831092C1000895863308F0865373
:1028F00020917B00982F9870277F922B90937B00DC
:10290000877020910E0290E4299F90011124822B60
:1029100080937C0080917A00806480937A0080911B
:102920007A0086FDFCCF809178002091790090E0BC
:10293000922B089590E0FC013197E231F10508F007
:102940004BC0EE58FF4F53C3809180008F7703C078
:10295000809180008F7D8093800008958091800019
:10296000877FF9CF84B58F7702C084B58F7D84BD12
:1029700008958091B0008F7703C08091B0008F7D63
:102980008093B0000895809190008F7707C0809168
:1029900090008F7D03C080919000877F809390008E
:1029A00008958091A0008F7707C08091A0008F7D4F
:1029B00003C08091A000877F8093A000089580913C
:1029C00020018F7707C0809120018F7D03C0809107
:1029D0002001877F809320010895CF93DF9390E0BB
:1029E000FC01E25BFE4F2491FC01EC56FE4F84910A
:1029F000882349F190E0880F991FFC01E25FFD4FA9
:102A0000A591B4918C509E4FFC01C591D4919FB774
:102A1000611108C0F8948C91209582238C93888151
:102A200082230AC0623051F4F8948C91322F309591
:102A300083238C938881822B888304C0F8948C91A3
:102A4000822B8C939FBFDF91CF9108950F931F939B
:102A5000CF93DF931F92CDB7DEB7282F30E0F90177
:102A6000E85FFE4F8491F901E25BFE4F1491F9019A
:102A7000EC56FE4F04910023C1F0882319F06983BE
:102A800059DF6981E02FF0E0EE0FFF1FEC50FE4FA1
:102A9000A591B4919FB7F8948C91611103C01095E2
:102AA000812301C0812B8C939FBF0F90DF91CF9129
:102AB0001F910F910895CF93DF93282F30E0F901F4
:102AC000E85FFE4F8491F901E25BFE4FD491F9017A
:102AD000EC56FE4FC491CC2389F081112BDFEC2FF3
:102AE000F0E0EE0FFF1FE652FE4FA591B4912C913E
:102AF0002D2381E090E021F480E002C080E090E0AE
:102B0000DF91CF910895BF92CF92DF92EF92FF9223
:102B10000F931F93CF93DF93C82ED62EB42EC7E00A
:102B2000D0E0022F10E087E0E82EF12CB1100AC0AF
:102B3000F701EC1BFD0BB80102C075956795EA958E
:102B4000E2F707C0B8010C2E02C0759567950A948C
:102B5000E2F7617077278C2D79DF61E08D2D76DFCC
:102B600060E08D2D73DF219708F7DF91CF911F91E2
:102B70000F91FF90EF90DF90CF90BF900895505845
:102B8000BB27AA270ED070C161D130F066D120F0EA
:102B900031F49F3F11F41EF456C10EF4E095E7FBAB
:102BA0004CC1E92F72D180F3BA176207730784070B
:102BB000950718F071F49EF58AC10EF4E0950B2E7E
:102BC000BA2FA02D0B01B90190010C01CA01A0017F
:102BD0001124FF27591B99F0593F50F4503E68F1DA
:102BE0001A16F040A22F232F342F4427585FF3CF1B
:102BF000469537952795A795F0405395C9F77EF4EC
:102C00001F16BA0B620B730B840BBAF09150A1F034
:102C1000FF0FBB1F661F771F881FC2F70EC0BA0FBA
:102C2000621F731F841F48F4879577956795B79542
:102C3000F7959E3F08F0B3CF9395880F08F099273A
:102C4000EE0F979587950895D4D008F481E0089504
:102C50000CD00AC102D140F0F9D030F021F45F3F2E
:102C600019F0EBC0511134C1EEC00FD198F3992384
:102C7000C9F35523B1F3951B550BBB27AA27621740
:102C80007307840738F09F5F5F4F220F331F441F85
:102C9000AA1FA9F333D00E2E3AF0E0E830D09150BD
:102CA0005040E695001CCAF729D0FE2F27D0660FAA
:102CB000771F881FBB1F261737074807AB07B0E8E9
:102CC00009F0BB0B802DBF01FF2793585F4F2AF0FF
:102CD0009E3F510568F0B1C0FBC05F3FECF3983EEA
:102CE000DCF3869577956795B795F7959F5FC9F75C
:102CF000880F911D9695879597F90895E1E0660FE5
:102D0000771F881FBB1F621773078407BA0720F05D
:102D1000621B730B840BBA0BEE1F88F7E0950895C6
:102D2000BCD088F09F5790F0B92F9927B751A0F0E9
:102D3000D1F0660F771F881F991F1AF0BA95C9F74F
:102D400012C0B13081F0C3D0B1E00895C0C0672F88
:102D5000782F8827B85F39F0B93FCCF386957795FF
:102D60006795B395D9F73EF49095809570956195E8
:102D70007F4F8F4F9F4F0895E89409C097FB3EF413
:102D800090958095709561957F4F8F4F9F4F9923B8
:102D9000A9F0F92F96E9BB279395F6958795779536
:102DA0006795B795F111F8CFFAF4BB0F11F460FFF6
:102DB0001BC06F5F7F4F8F4F9F4F16C0882311F04E
:102DC00096E911C0772321F09EE8872F762F05C062
:102DD000662371F096E8862F70E060E02AF09A95FD
:102DE000660F771F881FDAF7880F9695879597F9F2
:102DF0000895990F0008550FAA0BE0E8FEEF16168C
:102E00001706E807F907C0F012161306E407F507DE
:102E100098F0621B730B840B950B39F40A2661F052
:102E2000232B242B252B21F408950A2609F4A140F5
:102E3000A6958FEF811D811D089597F99F6780E802
:102E400070E060E008959FEF80EC089500240A94FC
:102E50001616170618060906089500240A94121675
:102E60001306140605060895092E0394000C11F4A8
:102E7000882352F0BB0F40F4BF2B11F460FF04C055
:102E80006F5F7F4F8F4F9F4F089557FD9058440FAE
:102E9000551F59F05F3F71F04795880F97FB991FB9
:102EA00061F09F3F79F08795089512161306140676
:102EB000551FF2CF4695F1DF08C016161706180603
:102EC000991FF1CF86957105610508940895E894DE
:102ED000BB2766277727CB0197F908958ADF08F487
:102EE0008FEF08950BD0C0CFB1DF28F0B6DF18F018
:102EF000952309F0A2CFA7CF1124EACFC6DFA0F314
:102F0000959FD1F3950F50E0551F629FF001729F7E
:102F1000BB27F00DB11D639FAA27F00DB11DAA1F9D
:102F2000649F6627B00DA11D661F829F2227B00DEA
:102F3000A11D621F739FB00DA11D621F839FA00D75
:102F4000611D221F749F3327A00D611D231F849FC5
:102F5000600D211D822F762F6A2F11249F5750401C
:102F60008AF0E1F088234AF0EE0FFF1FBB1F661FB7
:102F7000771F881F91505040A9F79E3F510570F070
:102F80005CCFA6CF5F3FECF3983EDCF38695779558
:102F90006795B795F795E7959F5FC1F7FE2B880F6B
:102FA000911D9695879597F90895A1E21A2EAA1B6F
:102FB000BB1BFD010DC0AA1FBB1FEE1FFF1FA217E9
:102FC000B307E407F50720F0A21BB30BE40BF50BE6
:102FD000661F771F881F991F1A9469F7609570956F
:102FE000809590959B01AC01BD01CF010895EE0F36
:102FF000FF1F0590F491E02D19940790F691E02DB4
:063000001994F894FFCFC3
:103006000000D905800001000000D007F401014D41
:10301600616E75616C20636F6E74726F6C2E2E2EEE
:103026002E2E2E2E2E2E2E2E2E2E2E2E2E2E2E2EBA
:103036002E2E2E2E2E2E2E2E2E2E00436F6E7472B8
:103046006F6C20424F5448002055736172742052B1
:10305600656365697665642E2E2E2E2E2E2E2E2EF7
:103066002E2E2E2E2E2E2E2E2E2E2E2E2E2E2E2E7A
:1030760000436F6E74726F6C204D6F64653A2E2E2E
:103086002E2E2E2E007465726D696E61746F72201D
:10309600636861723A2E2E2E2E2E2E2E2E2E2E2E58
:1030A6002E0000000000750949091E092609390984
:1030B600480900000000A70F1D12FD0E160F080F8D
:1030C600860F00000000C1110D0A006E616E0069D6
:0830D6006E66006F76660000D3
:00000001FF
